{
  "_format": "hh-sol-artifact-1",
  "contractName": "KSanswerNFT",
  "sourceName": "contracts/KSanswersNFTs.sol",
  "abi": [
    {
      "inputs": [],
      "stateMutability": "nonpayable",
      "type": "constructor"
    },
    {
      "anonymous": false,
      "inputs": [
        {
          "indexed": true,
          "internalType": "address",
          "name": "owner",
          "type": "address"
        },
        {
          "indexed": true,
          "internalType": "address",
          "name": "approved",
          "type": "address"
        },
        {
          "indexed": true,
          "internalType": "uint256",
          "name": "tokenId",
          "type": "uint256"
        }
      ],
      "name": "Approval",
      "type": "event"
    },
    {
      "anonymous": false,
      "inputs": [
        {
          "indexed": true,
          "internalType": "address",
          "name": "owner",
          "type": "address"
        },
        {
          "indexed": true,
          "internalType": "address",
          "name": "operator",
          "type": "address"
        },
        {
          "indexed": false,
          "internalType": "bool",
          "name": "approved",
          "type": "bool"
        }
      ],
      "name": "ApprovalForAll",
      "type": "event"
    },
    {
      "anonymous": false,
      "inputs": [
        {
          "indexed": true,
          "internalType": "address",
          "name": "owner",
          "type": "address"
        },
        {
          "indexed": false,
          "internalType": "uint256",
          "name": "dna",
          "type": "uint256"
        },
        {
          "indexed": false,
          "internalType": "uint256",
          "name": "_questionID",
          "type": "uint256"
        },
        {
          "indexed": false,
          "internalType": "string",
          "name": "creator",
          "type": "string"
        },
        {
          "indexed": false,
          "internalType": "string",
          "name": "answer",
          "type": "string"
        }
      ],
      "name": "NewAnswer",
      "type": "event"
    },
    {
      "anonymous": false,
      "inputs": [
        {
          "indexed": true,
          "internalType": "address",
          "name": "previousOwner",
          "type": "address"
        },
        {
          "indexed": true,
          "internalType": "address",
          "name": "newOwner",
          "type": "address"
        }
      ],
      "name": "OwnershipTransferred",
      "type": "event"
    },
    {
      "anonymous": false,
      "inputs": [
        {
          "indexed": true,
          "internalType": "address",
          "name": "from",
          "type": "address"
        },
        {
          "indexed": true,
          "internalType": "address",
          "name": "to",
          "type": "address"
        },
        {
          "indexed": true,
          "internalType": "uint256",
          "name": "tokenId",
          "type": "uint256"
        }
      ],
      "name": "Transfer",
      "type": "event"
    },
    {
      "inputs": [
        {
          "internalType": "uint256",
          "name": "_questionID",
          "type": "uint256"
        },
        {
          "internalType": "string",
          "name": "_creator",
          "type": "string"
        },
        {
          "internalType": "string",
          "name": "_answer",
          "type": "string"
        }
      ],
      "name": "answerTheQuestion",
      "outputs": [],
      "stateMutability": "payable",
      "type": "function"
    },
    {
      "inputs": [
        {
          "internalType": "uint256",
          "name": "",
          "type": "uint256"
        }
      ],
      "name": "answers",
      "outputs": [
        {
          "internalType": "uint256",
          "name": "dna",
          "type": "uint256"
        },
        {
          "internalType": "uint256",
          "name": "questionID",
          "type": "uint256"
        },
        {
          "internalType": "string",
          "name": "creator",
          "type": "string"
        },
        {
          "internalType": "string",
          "name": "asnwer",
          "type": "string"
        }
      ],
      "stateMutability": "view",
      "type": "function"
    },
    {
      "inputs": [
        {
          "internalType": "address",
          "name": "to",
          "type": "address"
        },
        {
          "internalType": "uint256",
          "name": "tokenId",
          "type": "uint256"
        }
      ],
      "name": "approve",
      "outputs": [],
      "stateMutability": "nonpayable",
      "type": "function"
    },
    {
      "inputs": [
        {
          "internalType": "address",
          "name": "owner",
          "type": "address"
        }
      ],
      "name": "balanceOf",
      "outputs": [
        {
          "internalType": "uint256",
          "name": "",
          "type": "uint256"
        }
      ],
      "stateMutability": "view",
      "type": "function"
    },
    {
      "inputs": [],
      "name": "getAllAnswers",
      "outputs": [
        {
          "components": [
            {
              "internalType": "uint256",
              "name": "dna",
              "type": "uint256"
            },
            {
              "internalType": "uint256",
              "name": "questionID",
              "type": "uint256"
            },
            {
              "internalType": "string",
              "name": "creator",
              "type": "string"
            },
            {
              "internalType": "string",
              "name": "asnwer",
              "type": "string"
            }
          ],
          "internalType": "struct KSanswerNFT.KSanswer[]",
          "name": "",
          "type": "tuple[]"
        }
      ],
      "stateMutability": "view",
      "type": "function"
    },
    {
      "inputs": [
        {
          "internalType": "uint256",
          "name": "tokenId",
          "type": "uint256"
        }
      ],
      "name": "getApproved",
      "outputs": [
        {
          "internalType": "address",
          "name": "",
          "type": "address"
        }
      ],
      "stateMutability": "view",
      "type": "function"
    },
    {
      "inputs": [
        {
          "internalType": "address",
          "name": "owner",
          "type": "address"
        },
        {
          "internalType": "address",
          "name": "operator",
          "type": "address"
        }
      ],
      "name": "isApprovedForAll",
      "outputs": [
        {
          "internalType": "bool",
          "name": "",
          "type": "bool"
        }
      ],
      "stateMutability": "view",
      "type": "function"
    },
    {
      "inputs": [],
      "name": "name",
      "outputs": [
        {
          "internalType": "string",
          "name": "",
          "type": "string"
        }
      ],
      "stateMutability": "view",
      "type": "function"
    },
    {
      "inputs": [],
      "name": "owner",
      "outputs": [
        {
          "internalType": "address",
          "name": "",
          "type": "address"
        }
      ],
      "stateMutability": "view",
      "type": "function"
    },
    {
      "inputs": [
        {
          "internalType": "uint256",
          "name": "tokenId",
          "type": "uint256"
        }
      ],
      "name": "ownerOf",
      "outputs": [
        {
          "internalType": "address",
          "name": "",
          "type": "address"
        }
      ],
      "stateMutability": "view",
      "type": "function"
    },
    {
      "inputs": [],
      "name": "renounceOwnership",
      "outputs": [],
      "stateMutability": "nonpayable",
      "type": "function"
    },
    {
      "inputs": [
        {
          "internalType": "address",
          "name": "from",
          "type": "address"
        },
        {
          "internalType": "address",
          "name": "to",
          "type": "address"
        },
        {
          "internalType": "uint256",
          "name": "tokenId",
          "type": "uint256"
        }
      ],
      "name": "safeTransferFrom",
      "outputs": [],
      "stateMutability": "nonpayable",
      "type": "function"
    },
    {
      "inputs": [
        {
          "internalType": "address",
          "name": "from",
          "type": "address"
        },
        {
          "internalType": "address",
          "name": "to",
          "type": "address"
        },
        {
          "internalType": "uint256",
          "name": "tokenId",
          "type": "uint256"
        },
        {
          "internalType": "bytes",
          "name": "data",
          "type": "bytes"
        }
      ],
      "name": "safeTransferFrom",
      "outputs": [],
      "stateMutability": "nonpayable",
      "type": "function"
    },
    {
      "inputs": [
        {
          "internalType": "address",
          "name": "operator",
          "type": "address"
        },
        {
          "internalType": "bool",
          "name": "approved",
          "type": "bool"
        }
      ],
      "name": "setApprovalForAll",
      "outputs": [],
      "stateMutability": "nonpayable",
      "type": "function"
    },
    {
      "inputs": [
        {
          "internalType": "bytes4",
          "name": "interfaceId",
          "type": "bytes4"
        }
      ],
      "name": "supportsInterface",
      "outputs": [
        {
          "internalType": "bool",
          "name": "",
          "type": "bool"
        }
      ],
      "stateMutability": "view",
      "type": "function"
    },
    {
      "inputs": [],
      "name": "symbol",
      "outputs": [
        {
          "internalType": "string",
          "name": "",
          "type": "string"
        }
      ],
      "stateMutability": "view",
      "type": "function"
    },
    {
      "inputs": [
        {
          "internalType": "uint256",
          "name": "tokenId",
          "type": "uint256"
        }
      ],
      "name": "tokenURI",
      "outputs": [
        {
          "internalType": "string",
          "name": "",
          "type": "string"
        }
      ],
      "stateMutability": "view",
      "type": "function"
    },
    {
      "inputs": [
        {
          "internalType": "address",
          "name": "from",
          "type": "address"
        },
        {
          "internalType": "address",
          "name": "to",
          "type": "address"
        },
        {
          "internalType": "uint256",
          "name": "tokenId",
          "type": "uint256"
        }
      ],
      "name": "transferFrom",
      "outputs": [],
      "stateMutability": "nonpayable",
      "type": "function"
    },
    {
      "inputs": [
        {
          "internalType": "address",
          "name": "newOwner",
          "type": "address"
        }
      ],
      "name": "transferOwnership",
      "outputs": [],
      "stateMutability": "nonpayable",
      "type": "function"
    }
  ],
  "bytecode": "0x608060405260016008553480156200001657600080fd5b506040518060400160405280601581526020017f4b6e6f776c65646765205377617020416e7377657200000000000000000000008152506040518060400160405280600381526020017f4b53410000000000000000000000000000000000000000000000000000000000815250816000908162000094919062000417565b508060019081620000a6919062000417565b505050620000c9620000bd620000cf60201b60201c565b620000d760201b60201c565b620004fe565b600033905090565b6000600660009054906101000a900473ffffffffffffffffffffffffffffffffffffffff16905081600660006101000a81548173ffffffffffffffffffffffffffffffffffffffff021916908373ffffffffffffffffffffffffffffffffffffffff1602179055508173ffffffffffffffffffffffffffffffffffffffff168173ffffffffffffffffffffffffffffffffffffffff167f8be0079c531659141344cd1fd0a4f28419497f9722a3daafe3b4186f6b6457e060405160405180910390a35050565b600081519050919050565b7f4e487b7100000000000000000000000000000000000000000000000000000000600052604160045260246000fd5b7f4e487b7100000000000000000000000000000000000000000000000000000000600052602260045260246000fd5b600060028204905060018216806200021f57607f821691505b602082108103620002355762000234620001d7565b5b50919050565b60008190508160005260206000209050919050565b60006020601f8301049050919050565b600082821b905092915050565b6000600883026200029f7fffffffffffffffffffffffffffffffffffffffffffffffffffffffffffffffff8262000260565b620002ab868362000260565b95508019841693508086168417925050509392505050565b6000819050919050565b6000819050919050565b6000620002f8620002f2620002ec84620002c3565b620002cd565b620002c3565b9050919050565b6000819050919050565b6200031483620002d7565b6200032c6200032382620002ff565b8484546200026d565b825550505050565b600090565b6200034362000334565b6200035081848462000309565b505050565b5b8181101562000378576200036c60008262000339565b60018101905062000356565b5050565b601f821115620003c75762000391816200023b565b6200039c8462000250565b81016020851015620003ac578190505b620003c4620003bb8562000250565b83018262000355565b50505b505050565b600082821c905092915050565b6000620003ec60001984600802620003cc565b1980831691505092915050565b6000620004078383620003d9565b9150826002028217905092915050565b62000422826200019d565b67ffffffffffffffff8111156200043e576200043d620001a8565b5b6200044a825462000206565b620004578282856200037c565b600060209050601f8311600181146200048f57600084156200047a578287015190505b620004868582620003f9565b865550620004f6565b601f1984166200049f866200023b565b60005b82811015620004c957848901518255600182019150602085019450602081019050620004a2565b86831015620004e95784890151620004e5601f891682620003d9565b8355505b6001600288020188555050505b505050505050565b613681806200050e6000396000f3fe6080604052600436106101145760003560e01c80636352211e116100a0578063a22cb46511610064578063a22cb465146103a7578063b88d4fde146103d0578063c87b56dd146103f9578063e985e9c514610436578063f2fde38b1461047357610114565b80636352211e146102c057806370a08231146102fd578063715018a61461033a5780638da5cb5b1461035157806395d89b411461037c57610114565b8063095ea7b3116100e7578063095ea7b3146101e957806317599cc51461021257806323b872dd14610252578063344a7edc1461027b57806342842e0e1461029757610114565b806301ffc9a71461011957806306fdde0314610156578063081812fc1461018157806308294b99146101be575b600080fd5b34801561012557600080fd5b50610140600480360381019061013b919061213a565b61049c565b60405161014d9190612182565b60405180910390f35b34801561016257600080fd5b5061016b61057e565b604051610178919061222d565b60405180910390f35b34801561018d57600080fd5b506101a860048036038101906101a39190612285565b610610565b6040516101b591906122f3565b60405180910390f35b3480156101ca57600080fd5b506101d3610656565b6040516101e09190612493565b60405180910390f35b3480156101f557600080fd5b50610210600480360381019061020b91906124e1565b6107ed565b005b34801561021e57600080fd5b5061023960048036038101906102349190612285565b610904565b6040516102499493929190612530565b60405180910390f35b34801561025e57600080fd5b5061027960048036038101906102749190612583565b610a54565b005b6102956004803603810190610290919061270b565b610ab4565b005b3480156102a357600080fd5b506102be60048036038101906102b99190612583565b610ad5565b005b3480156102cc57600080fd5b506102e760048036038101906102e29190612285565b610af5565b6040516102f491906122f3565b60405180910390f35b34801561030957600080fd5b50610324600480360381019061031f9190612796565b610b7b565b60405161033191906127c3565b60405180910390f35b34801561034657600080fd5b5061034f610c32565b005b34801561035d57600080fd5b50610366610c46565b60405161037391906122f3565b60405180910390f35b34801561038857600080fd5b50610391610c70565b60405161039e919061222d565b60405180910390f35b3480156103b357600080fd5b506103ce60048036038101906103c9919061280a565b610d02565b005b3480156103dc57600080fd5b506103f760048036038101906103f291906128eb565b610d18565b005b34801561040557600080fd5b50610420600480360381019061041b9190612285565b610d7a565b60405161042d919061222d565b60405180910390f35b34801561044257600080fd5b5061045d6004803603810190610458919061296e565b610de2565b60405161046a9190612182565b60405180910390f35b34801561047f57600080fd5b5061049a60048036038101906104959190612796565b610e76565b005b60007f80ac58cd000000000000000000000000000000000000000000000000000000007bffffffffffffffffffffffffffffffffffffffffffffffffffffffff1916827bffffffffffffffffffffffffffffffffffffffffffffffffffffffff1916148061056757507f5b5e139f000000000000000000000000000000000000000000000000000000007bffffffffffffffffffffffffffffffffffffffffffffffffffffffff1916827bffffffffffffffffffffffffffffffffffffffffffffffffffffffff1916145b80610577575061057682610ef9565b5b9050919050565b60606000805461058d906129dd565b80601f01602080910402602001604051908101604052809291908181526020018280546105b9906129dd565b80156106065780601f106105db57610100808354040283529160200191610606565b820191906000526020600020905b8154815290600101906020018083116105e957829003601f168201915b5050505050905090565b600061061b82610f63565b6004600083815260200190815260200160002060009054906101000a900473ffffffffffffffffffffffffffffffffffffffff169050919050565b60606007805480602002602001604051908101604052809291908181526020016000905b828210156107e4578382906000526020600020906004020160405180608001604052908160008201548152602001600182015481526020016002820180546106c1906129dd565b80601f01602080910402602001604051908101604052809291908181526020018280546106ed906129dd565b801561073a5780601f1061070f5761010080835404028352916020019161073a565b820191906000526020600020905b81548152906001019060200180831161071d57829003601f168201915b50505050508152602001600382018054610753906129dd565b80601f016020809104026020016040519081016040528092919081815260200182805461077f906129dd565b80156107cc5780601f106107a1576101008083540402835291602001916107cc565b820191906000526020600020905b8154815290600101906020018083116107af57829003601f168201915b5050505050815250508152602001906001019061067a565b50505050905090565b60006107f882610af5565b90508073ffffffffffffffffffffffffffffffffffffffff168373ffffffffffffffffffffffffffffffffffffffff1603610868576040517f08c379a000000000000000000000000000000000000000000000000000000000815260040161085f90612a80565b60405180910390fd5b8073ffffffffffffffffffffffffffffffffffffffff16610887610fae565b73ffffffffffffffffffffffffffffffffffffffff1614806108b657506108b5816108b0610fae565b610de2565b5b6108f5576040517f08c379a00000000000000000000000000000000000000000000000000000000081526004016108ec90612b12565b60405180910390fd5b6108ff8383610fb6565b505050565b6007818154811061091457600080fd5b9060005260206000209060040201600091509050806000015490806001015490806002018054610943906129dd565b80601f016020809104026020016040519081016040528092919081815260200182805461096f906129dd565b80156109bc5780601f10610991576101008083540402835291602001916109bc565b820191906000526020600020905b81548152906001019060200180831161099f57829003601f168201915b5050505050908060030180546109d1906129dd565b80601f01602080910402602001604051908101604052809291908181526020018280546109fd906129dd565b8015610a4a5780601f10610a1f57610100808354040283529160200191610a4a565b820191906000526020600020905b815481529060010190602001808311610a2d57829003601f168201915b5050505050905084565b610a65610a5f610fae565b8261106f565b610aa4576040517f08c379a0000000000000000000000000000000000000000000000000000000008152600401610a9b90612ba4565b60405180910390fd5b610aaf838383611104565b505050565b6000610ac18484846113fd565b9050610acf8185858561148e565b50505050565b610af083838360405180602001604052806000815250610d18565b505050565b600080610b01836115a0565b9050600073ffffffffffffffffffffffffffffffffffffffff168173ffffffffffffffffffffffffffffffffffffffff1603610b72576040517f08c379a0000000000000000000000000000000000000000000000000000000008152600401610b6990612c10565b60405180910390fd5b80915050919050565b60008073ffffffffffffffffffffffffffffffffffffffff168273ffffffffffffffffffffffffffffffffffffffff1603610beb576040517f08c379a0000000000000000000000000000000000000000000000000000000008152600401610be290612ca2565b60405180910390fd5b600360008373ffffffffffffffffffffffffffffffffffffffff1673ffffffffffffffffffffffffffffffffffffffff168152602001908152602001600020549050919050565b610c3a6115dd565b610c44600061165b565b565b6000600660009054906101000a900473ffffffffffffffffffffffffffffffffffffffff16905090565b606060018054610c7f906129dd565b80601f0160208091040260200160405190810160405280929190818152602001828054610cab906129dd565b8015610cf85780601f10610ccd57610100808354040283529160200191610cf8565b820191906000526020600020905b815481529060010190602001808311610cdb57829003601f168201915b5050505050905090565b610d14610d0d610fae565b8383611721565b5050565b610d29610d23610fae565b8361106f565b610d68576040517f08c379a0000000000000000000000000000000000000000000000000000000008152600401610d5f90612ba4565b60405180910390fd5b610d748484848461188d565b50505050565b6060610d8582610f63565b6000610d8f6118e9565b90506000815111610daf5760405180602001604052806000815250610dda565b80610db984611900565b604051602001610dca929190612cfe565b6040516020818303038152906040525b915050919050565b6000600560008473ffffffffffffffffffffffffffffffffffffffff1673ffffffffffffffffffffffffffffffffffffffff16815260200190815260200160002060008373ffffffffffffffffffffffffffffffffffffffff1673ffffffffffffffffffffffffffffffffffffffff16815260200190815260200160002060009054906101000a900460ff16905092915050565b610e7e6115dd565b600073ffffffffffffffffffffffffffffffffffffffff168173ffffffffffffffffffffffffffffffffffffffff1603610eed576040517f08c379a0000000000000000000000000000000000000000000000000000000008152600401610ee490612d94565b60405180910390fd5b610ef68161165b565b50565b60007f01ffc9a7000000000000000000000000000000000000000000000000000000007bffffffffffffffffffffffffffffffffffffffffffffffffffffffff1916827bffffffffffffffffffffffffffffffffffffffffffffffffffffffff1916149050919050565b610f6c816119ce565b610fab576040517f08c379a0000000000000000000000000000000000000000000000000000000008152600401610fa290612c10565b60405180910390fd5b50565b600033905090565b816004600083815260200190815260200160002060006101000a81548173ffffffffffffffffffffffffffffffffffffffff021916908373ffffffffffffffffffffffffffffffffffffffff160217905550808273ffffffffffffffffffffffffffffffffffffffff1661102983610af5565b73ffffffffffffffffffffffffffffffffffffffff167f8c5be1e5ebec7d5bd14f71427d1e84f3dd0314c0f7b2291e5b200ac8c7c3b92560405160405180910390a45050565b60008061107b83610af5565b90508073ffffffffffffffffffffffffffffffffffffffff168473ffffffffffffffffffffffffffffffffffffffff1614806110bd57506110bc8185610de2565b5b806110fb57508373ffffffffffffffffffffffffffffffffffffffff166110e384610610565b73ffffffffffffffffffffffffffffffffffffffff16145b91505092915050565b8273ffffffffffffffffffffffffffffffffffffffff1661112482610af5565b73ffffffffffffffffffffffffffffffffffffffff161461117a576040517f08c379a000000000000000000000000000000000000000000000000000000000815260040161117190612e26565b60405180910390fd5b600073ffffffffffffffffffffffffffffffffffffffff168273ffffffffffffffffffffffffffffffffffffffff16036111e9576040517f08c379a00000000000000000000000000000000000000000000000000000000081526004016111e090612eb8565b60405180910390fd5b6111f68383836001611a0f565b8273ffffffffffffffffffffffffffffffffffffffff1661121682610af5565b73ffffffffffffffffffffffffffffffffffffffff161461126c576040517f08c379a000000000000000000000000000000000000000000000000000000000815260040161126390612e26565b60405180910390fd5b6004600082815260200190815260200160002060006101000a81549073ffffffffffffffffffffffffffffffffffffffff02191690556001600360008573ffffffffffffffffffffffffffffffffffffffff1673ffffffffffffffffffffffffffffffffffffffff168152602001908152602001600020600082825403925050819055506001600360008473ffffffffffffffffffffffffffffffffffffffff1673ffffffffffffffffffffffffffffffffffffffff16815260200190815260200160002060008282540192505081905550816002600083815260200190815260200160002060006101000a81548173ffffffffffffffffffffffffffffffffffffffff021916908373ffffffffffffffffffffffffffffffffffffffff160217905550808273ffffffffffffffffffffffffffffffffffffffff168473ffffffffffffffffffffffffffffffffffffffff167fddf252ad1be2c89b69c2b068fc378daa952ba7f163c4a11628f55a4df523b3ef60405160405180910390a46113f88383836001611b35565b505050565b6000806040518060200160405280600081525090508061141c86611900565b85856040516020016114319493929190612f1f565b60405160208183030381529060405290506000816040516020016114559190612f5d565b6040516020818303038152906040528051906020012060001c9050662386f26fc10000816114839190612fa3565b925050509392505050565b600060405180608001604052808681526020018581526020018481526020018381525090506007819080600181540180825580915050600190039060005260206000209060040201600090919091909150600082015181600001556020820151816001015560408201518160020190816115089190613180565b50606082015181600301908161151e9190613180565b50505061152d33600854611b3b565b3373ffffffffffffffffffffffffffffffffffffffff167f1efbe8a3a3e73a6aa1eefd81b5ed1f09f82eccd4165d4a75ef3c040ecb996999868686866040516115799493929190612530565b60405180910390a26008600081548092919061159490613281565b91905055505050505050565b60006002600083815260200190815260200160002060009054906101000a900473ffffffffffffffffffffffffffffffffffffffff169050919050565b6115e5610fae565b73ffffffffffffffffffffffffffffffffffffffff16611603610c46565b73ffffffffffffffffffffffffffffffffffffffff1614611659576040517f08c379a000000000000000000000000000000000000000000000000000000000815260040161165090613315565b60405180910390fd5b565b6000600660009054906101000a900473ffffffffffffffffffffffffffffffffffffffff16905081600660006101000a81548173ffffffffffffffffffffffffffffffffffffffff021916908373ffffffffffffffffffffffffffffffffffffffff1602179055508173ffffffffffffffffffffffffffffffffffffffff168173ffffffffffffffffffffffffffffffffffffffff167f8be0079c531659141344cd1fd0a4f28419497f9722a3daafe3b4186f6b6457e060405160405180910390a35050565b8173ffffffffffffffffffffffffffffffffffffffff168373ffffffffffffffffffffffffffffffffffffffff160361178f576040517f08c379a000000000000000000000000000000000000000000000000000000000815260040161178690613381565b60405180910390fd5b80600560008573ffffffffffffffffffffffffffffffffffffffff1673ffffffffffffffffffffffffffffffffffffffff16815260200190815260200160002060008473ffffffffffffffffffffffffffffffffffffffff1673ffffffffffffffffffffffffffffffffffffffff16815260200190815260200160002060006101000a81548160ff0219169083151502179055508173ffffffffffffffffffffffffffffffffffffffff168373ffffffffffffffffffffffffffffffffffffffff167f17307eab39ab6107e8899845ad3d59bd9653f200f220920489ca2b5937696c31836040516118809190612182565b60405180910390a3505050565b611898848484611104565b6118a484848484611b59565b6118e3576040517f08c379a00000000000000000000000000000000000000000000000000000000081526004016118da90613413565b60405180910390fd5b50505050565b606060405180602001604052806000815250905090565b60606000600161190f84611ce0565b01905060008167ffffffffffffffff81111561192e5761192d6125e0565b5b6040519080825280601f01601f1916602001820160405280156119605781602001600182028036833780820191505090505b509050600082602001820190505b6001156119c3578080600190039150507f3031323334353637383961626364656600000000000000000000000000000000600a86061a8153600a85816119b7576119b6612f74565b5b0494506000850361196e575b819350505050919050565b60008073ffffffffffffffffffffffffffffffffffffffff166119f0836115a0565b73ffffffffffffffffffffffffffffffffffffffff1614159050919050565b6001811115611b2f57600073ffffffffffffffffffffffffffffffffffffffff168473ffffffffffffffffffffffffffffffffffffffff1614611aa35780600360008673ffffffffffffffffffffffffffffffffffffffff1673ffffffffffffffffffffffffffffffffffffffff1681526020019081526020016000206000828254611a9b9190613433565b925050819055505b600073ffffffffffffffffffffffffffffffffffffffff168373ffffffffffffffffffffffffffffffffffffffff1614611b2e5780600360008573ffffffffffffffffffffffffffffffffffffffff1673ffffffffffffffffffffffffffffffffffffffff1681526020019081526020016000206000828254611b269190613467565b925050819055505b5b50505050565b50505050565b611b55828260405180602001604052806000815250611e33565b5050565b6000611b7a8473ffffffffffffffffffffffffffffffffffffffff16611e8e565b15611cd3578373ffffffffffffffffffffffffffffffffffffffff1663150b7a02611ba3610fae565b8786866040518563ffffffff1660e01b8152600401611bc594939291906134e5565b6020604051808303816000875af1925050508015611c0157506040513d601f19601f82011682018060405250810190611bfe9190613546565b60015b611c83573d8060008114611c31576040519150601f19603f3d011682016040523d82523d6000602084013e611c36565b606091505b506000815103611c7b576040517f08c379a0000000000000000000000000000000000000000000000000000000008152600401611c7290613413565b60405180910390fd5b805181602001fd5b63150b7a0260e01b7bffffffffffffffffffffffffffffffffffffffffffffffffffffffff1916817bffffffffffffffffffffffffffffffffffffffffffffffffffffffff191614915050611cd8565b600190505b949350505050565b600080600090507a184f03e93ff9f4daa797ed6e38ed64bf6a1f0100000000000000008310611d3e577a184f03e93ff9f4daa797ed6e38ed64bf6a1f0100000000000000008381611d3457611d33612f74565b5b0492506040810190505b6d04ee2d6d415b85acef81000000008310611d7b576d04ee2d6d415b85acef81000000008381611d7157611d70612f74565b5b0492506020810190505b662386f26fc100008310611daa57662386f26fc100008381611da057611d9f612f74565b5b0492506010810190505b6305f5e1008310611dd3576305f5e1008381611dc957611dc8612f74565b5b0492506008810190505b6127108310611df8576127108381611dee57611ded612f74565b5b0492506004810190505b60648310611e1b5760648381611e1157611e10612f74565b5b0492506002810190505b600a8310611e2a576001810190505b80915050919050565b611e3d8383611eb1565b611e4a6000848484611b59565b611e89576040517f08c379a0000000000000000000000000000000000000000000000000000000008152600401611e8090613413565b60405180910390fd5b505050565b6000808273ffffffffffffffffffffffffffffffffffffffff163b119050919050565b600073ffffffffffffffffffffffffffffffffffffffff168273ffffffffffffffffffffffffffffffffffffffff1603611f20576040517f08c379a0000000000000000000000000000000000000000000000000000000008152600401611f17906135bf565b60405180910390fd5b611f29816119ce565b15611f69576040517f08c379a0000000000000000000000000000000000000000000000000000000008152600401611f609061362b565b60405180910390fd5b611f77600083836001611a0f565b611f80816119ce565b15611fc0576040517f08c379a0000000000000000000000000000000000000000000000000000000008152600401611fb79061362b565b60405180910390fd5b6001600360008473ffffffffffffffffffffffffffffffffffffffff1673ffffffffffffffffffffffffffffffffffffffff16815260200190815260200160002060008282540192505081905550816002600083815260200190815260200160002060006101000a81548173ffffffffffffffffffffffffffffffffffffffff021916908373ffffffffffffffffffffffffffffffffffffffff160217905550808273ffffffffffffffffffffffffffffffffffffffff16600073ffffffffffffffffffffffffffffffffffffffff167fddf252ad1be2c89b69c2b068fc378daa952ba7f163c4a11628f55a4df523b3ef60405160405180910390a46120ca600083836001611b35565b5050565b6000604051905090565b600080fd5b600080fd5b60007fffffffff0000000000000000000000000000000000000000000000000000000082169050919050565b612117816120e2565b811461212257600080fd5b50565b6000813590506121348161210e565b92915050565b6000602082840312156121505761214f6120d8565b5b600061215e84828501612125565b91505092915050565b60008115159050919050565b61217c81612167565b82525050565b60006020820190506121976000830184612173565b92915050565b600081519050919050565b600082825260208201905092915050565b60005b838110156121d75780820151818401526020810190506121bc565b60008484015250505050565b6000601f19601f8301169050919050565b60006121ff8261219d565b61220981856121a8565b93506122198185602086016121b9565b612222816121e3565b840191505092915050565b6000602082019050818103600083015261224781846121f4565b905092915050565b6000819050919050565b6122628161224f565b811461226d57600080fd5b50565b60008135905061227f81612259565b92915050565b60006020828403121561229b5761229a6120d8565b5b60006122a984828501612270565b91505092915050565b600073ffffffffffffffffffffffffffffffffffffffff82169050919050565b60006122dd826122b2565b9050919050565b6122ed816122d2565b82525050565b600060208201905061230860008301846122e4565b92915050565b600081519050919050565b600082825260208201905092915050565b6000819050602082019050919050565b6123438161224f565b82525050565b600082825260208201905092915050565b60006123658261219d565b61236f8185612349565b935061237f8185602086016121b9565b612388816121e3565b840191505092915050565b60006080830160008301516123ab600086018261233a565b5060208301516123be602086018261233a565b50604083015184820360408601526123d6828261235a565b915050606083015184820360608601526123f0828261235a565b9150508091505092915050565b60006124098383612393565b905092915050565b6000602082019050919050565b60006124298261230e565b6124338185612319565b9350836020820285016124458561232a565b8060005b85811015612481578484038952815161246285826123fd565b945061246d83612411565b925060208a01995050600181019050612449565b50829750879550505050505092915050565b600060208201905081810360008301526124ad818461241e565b905092915050565b6124be816122d2565b81146124c957600080fd5b50565b6000813590506124db816124b5565b92915050565b600080604083850312156124f8576124f76120d8565b5b6000612506858286016124cc565b925050602061251785828601612270565b9150509250929050565b61252a8161224f565b82525050565b60006080820190506125456000830187612521565b6125526020830186612521565b818103604083015261256481856121f4565b9050818103606083015261257881846121f4565b905095945050505050565b60008060006060848603121561259c5761259b6120d8565b5b60006125aa868287016124cc565b93505060206125bb868287016124cc565b92505060406125cc86828701612270565b9150509250925092565b600080fd5b600080fd5b7f4e487b7100000000000000000000000000000000000000000000000000000000600052604160045260246000fd5b612618826121e3565b810181811067ffffffffffffffff82111715612637576126366125e0565b5b80604052505050565b600061264a6120ce565b9050612656828261260f565b919050565b600067ffffffffffffffff821115612676576126756125e0565b5b61267f826121e3565b9050602081019050919050565b82818337600083830152505050565b60006126ae6126a98461265b565b612640565b9050828152602081018484840111156126ca576126c96125db565b5b6126d584828561268c565b509392505050565b600082601f8301126126f2576126f16125d6565b5b813561270284826020860161269b565b91505092915050565b600080600060608486031215612724576127236120d8565b5b600061273286828701612270565b935050602084013567ffffffffffffffff811115612753576127526120dd565b5b61275f868287016126dd565b925050604084013567ffffffffffffffff8111156127805761277f6120dd565b5b61278c868287016126dd565b9150509250925092565b6000602082840312156127ac576127ab6120d8565b5b60006127ba848285016124cc565b91505092915050565b60006020820190506127d86000830184612521565b92915050565b6127e781612167565b81146127f257600080fd5b50565b600081359050612804816127de565b92915050565b60008060408385031215612821576128206120d8565b5b600061282f858286016124cc565b9250506020612840858286016127f5565b9150509250929050565b600067ffffffffffffffff821115612865576128646125e0565b5b61286e826121e3565b9050602081019050919050565b600061288e6128898461284a565b612640565b9050828152602081018484840111156128aa576128a96125db565b5b6128b584828561268c565b509392505050565b600082601f8301126128d2576128d16125d6565b5b81356128e284826020860161287b565b91505092915050565b60008060008060808587031215612905576129046120d8565b5b6000612913878288016124cc565b9450506020612924878288016124cc565b935050604061293587828801612270565b925050606085013567ffffffffffffffff811115612956576129556120dd565b5b612962878288016128bd565b91505092959194509250565b60008060408385031215612985576129846120d8565b5b6000612993858286016124cc565b92505060206129a4858286016124cc565b9150509250929050565b7f4e487b7100000000000000000000000000000000000000000000000000000000600052602260045260246000fd5b600060028204905060018216806129f557607f821691505b602082108103612a0857612a076129ae565b5b50919050565b7f4552433732313a20617070726f76616c20746f2063757272656e74206f776e6560008201527f7200000000000000000000000000000000000000000000000000000000000000602082015250565b6000612a6a6021836121a8565b9150612a7582612a0e565b604082019050919050565b60006020820190508181036000830152612a9981612a5d565b9050919050565b7f4552433732313a20617070726f76652063616c6c6572206973206e6f7420746f60008201527f6b656e206f776e6572206f7220617070726f76656420666f7220616c6c000000602082015250565b6000612afc603d836121a8565b9150612b0782612aa0565b604082019050919050565b60006020820190508181036000830152612b2b81612aef565b9050919050565b7f4552433732313a2063616c6c6572206973206e6f7420746f6b656e206f776e6560008201527f72206f7220617070726f76656400000000000000000000000000000000000000602082015250565b6000612b8e602d836121a8565b9150612b9982612b32565b604082019050919050565b60006020820190508181036000830152612bbd81612b81565b9050919050565b7f4552433732313a20696e76616c696420746f6b656e2049440000000000000000600082015250565b6000612bfa6018836121a8565b9150612c0582612bc4565b602082019050919050565b60006020820190508181036000830152612c2981612bed565b9050919050565b7f4552433732313a2061646472657373207a65726f206973206e6f74206120766160008201527f6c6964206f776e65720000000000000000000000000000000000000000000000602082015250565b6000612c8c6029836121a8565b9150612c9782612c30565b604082019050919050565b60006020820190508181036000830152612cbb81612c7f565b9050919050565b600081905092915050565b6000612cd88261219d565b612ce28185612cc2565b9350612cf28185602086016121b9565b80840191505092915050565b6000612d0a8285612ccd565b9150612d168284612ccd565b91508190509392505050565b7f4f776e61626c653a206e6577206f776e657220697320746865207a65726f206160008201527f6464726573730000000000000000000000000000000000000000000000000000602082015250565b6000612d7e6026836121a8565b9150612d8982612d22565b604082019050919050565b60006020820190508181036000830152612dad81612d71565b9050919050565b7f4552433732313a207472616e736665722066726f6d20696e636f72726563742060008201527f6f776e6572000000000000000000000000000000000000000000000000000000602082015250565b6000612e106025836121a8565b9150612e1b82612db4565b604082019050919050565b60006020820190508181036000830152612e3f81612e03565b9050919050565b7f4552433732313a207472616e7366657220746f20746865207a65726f2061646460008201527f7265737300000000000000000000000000000000000000000000000000000000602082015250565b6000612ea26024836121a8565b9150612ead82612e46565b604082019050919050565b60006020820190508181036000830152612ed181612e95565b9050919050565b600081519050919050565b600081905092915050565b6000612ef982612ed8565b612f038185612ee3565b9350612f138185602086016121b9565b80840191505092915050565b6000612f2b8287612eee565b9150612f378286612eee565b9150612f438285612eee565b9150612f4f8284612eee565b915081905095945050505050565b6000612f698284612ccd565b915081905092915050565b7f4e487b7100000000000000000000000000000000000000000000000000000000600052601260045260246000fd5b6000612fae8261224f565b9150612fb98361224f565b925082612fc957612fc8612f74565b5b828206905092915050565b60008190508160005260206000209050919050565b60006020601f8301049050919050565b600082821b905092915050565b6000600883026130367fffffffffffffffffffffffffffffffffffffffffffffffffffffffffffffffff82612ff9565b6130408683612ff9565b95508019841693508086168417925050509392505050565b6000819050919050565b600061307d6130786130738461224f565b613058565b61224f565b9050919050565b6000819050919050565b61309783613062565b6130ab6130a382613084565b848454613006565b825550505050565b600090565b6130c06130b3565b6130cb81848461308e565b505050565b5b818110156130ef576130e46000826130b8565b6001810190506130d1565b5050565b601f8211156131345761310581612fd4565b61310e84612fe9565b8101602085101561311d578190505b61313161312985612fe9565b8301826130d0565b50505b505050565b600082821c905092915050565b600061315760001984600802613139565b1980831691505092915050565b60006131708383613146565b9150826002028217905092915050565b6131898261219d565b67ffffffffffffffff8111156131a2576131a16125e0565b5b6131ac82546129dd565b6131b78282856130f3565b600060209050601f8311600181146131ea57600084156131d8578287015190505b6131e28582613164565b86555061324a565b601f1984166131f886612fd4565b60005b82811015613220578489015182556001820191506020850194506020810190506131fb565b8683101561323d5784890151613239601f891682613146565b8355505b6001600288020188555050505b505050505050565b7f4e487b7100000000000000000000000000000000000000000000000000000000600052601160045260246000fd5b600061328c8261224f565b91507fffffffffffffffffffffffffffffffffffffffffffffffffffffffffffffffff82036132be576132bd613252565b5b600182019050919050565b7f4f776e61626c653a2063616c6c6572206973206e6f7420746865206f776e6572600082015250565b60006132ff6020836121a8565b915061330a826132c9565b602082019050919050565b6000602082019050818103600083015261332e816132f2565b9050919050565b7f4552433732313a20617070726f766520746f2063616c6c657200000000000000600082015250565b600061336b6019836121a8565b915061337682613335565b602082019050919050565b6000602082019050818103600083015261339a8161335e565b9050919050565b7f4552433732313a207472616e7366657220746f206e6f6e20455243373231526560008201527f63656976657220696d706c656d656e7465720000000000000000000000000000602082015250565b60006133fd6032836121a8565b9150613408826133a1565b604082019050919050565b6000602082019050818103600083015261342c816133f0565b9050919050565b600061343e8261224f565b91506134498361224f565b925082820390508181111561346157613460613252565b5b92915050565b60006134728261224f565b915061347d8361224f565b925082820190508082111561349557613494613252565b5b92915050565b600082825260208201905092915050565b60006134b782612ed8565b6134c1818561349b565b93506134d18185602086016121b9565b6134da816121e3565b840191505092915050565b60006080820190506134fa60008301876122e4565b61350760208301866122e4565b6135146040830185612521565b818103606083015261352681846134ac565b905095945050505050565b6000815190506135408161210e565b92915050565b60006020828403121561355c5761355b6120d8565b5b600061356a84828501613531565b91505092915050565b7f4552433732313a206d696e7420746f20746865207a65726f2061646472657373600082015250565b60006135a96020836121a8565b91506135b482613573565b602082019050919050565b600060208201905081810360008301526135d88161359c565b9050919050565b7f4552433732313a20746f6b656e20616c7265616479206d696e74656400000000600082015250565b6000613615601c836121a8565b9150613620826135df565b602082019050919050565b6000602082019050818103600083015261364481613608565b905091905056fea2646970667358221220ffaf7ef31febef77b33fef7f17adae51563695e4f72919337835dbc455da83b564736f6c63430008110033",
  "linkReferences": {},
  "deployedLinkReferences": {}
}