{
  "_format": "hh-sol-artifact-1",
  "contractName": "KSquestionNFT",
  "sourceName": "contracts/KSquestionNFTs.sol",
  "abi": [
    {
      "inputs": [],
      "stateMutability": "nonpayable",
      "type": "constructor"
    },
    {
      "anonymous": false,
      "inputs": [
        {
          "indexed": true,
          "internalType": "address",
          "name": "owner",
          "type": "address"
        },
        {
          "indexed": true,
          "internalType": "address",
          "name": "approved",
          "type": "address"
        },
        {
          "indexed": true,
          "internalType": "uint256",
          "name": "tokenId",
          "type": "uint256"
        }
      ],
      "name": "Approval",
      "type": "event"
    },
    {
      "anonymous": false,
      "inputs": [
        {
          "indexed": true,
          "internalType": "address",
          "name": "owner",
          "type": "address"
        },
        {
          "indexed": true,
          "internalType": "address",
          "name": "operator",
          "type": "address"
        },
        {
          "indexed": false,
          "internalType": "bool",
          "name": "approved",
          "type": "bool"
        }
      ],
      "name": "ApprovalForAll",
      "type": "event"
    },
    {
      "anonymous": false,
      "inputs": [
        {
          "indexed": true,
          "internalType": "address",
          "name": "owner",
          "type": "address"
        },
        {
          "indexed": false,
          "internalType": "uint256",
          "name": "dna",
          "type": "uint256"
        },
        {
          "indexed": false,
          "internalType": "string",
          "name": "creator",
          "type": "string"
        },
        {
          "indexed": false,
          "internalType": "string",
          "name": "question",
          "type": "string"
        },
        {
          "indexed": false,
          "internalType": "uint256",
          "name": "bounty",
          "type": "uint256"
        },
        {
          "indexed": false,
          "internalType": "string",
          "name": "timeLeft",
          "type": "string"
        }
      ],
      "name": "NewQuestion",
      "type": "event"
    },
    {
      "anonymous": false,
      "inputs": [
        {
          "indexed": true,
          "internalType": "address",
          "name": "previousOwner",
          "type": "address"
        },
        {
          "indexed": true,
          "internalType": "address",
          "name": "newOwner",
          "type": "address"
        }
      ],
      "name": "OwnershipTransferred",
      "type": "event"
    },
    {
      "anonymous": false,
      "inputs": [
        {
          "indexed": true,
          "internalType": "address",
          "name": "from",
          "type": "address"
        },
        {
          "indexed": true,
          "internalType": "address",
          "name": "to",
          "type": "address"
        },
        {
          "indexed": true,
          "internalType": "uint256",
          "name": "tokenId",
          "type": "uint256"
        }
      ],
      "name": "Transfer",
      "type": "event"
    },
    {
      "inputs": [
        {
          "internalType": "string",
          "name": "_creator",
          "type": "string"
        },
        {
          "internalType": "string",
          "name": "_question",
          "type": "string"
        },
        {
          "internalType": "uint256",
          "name": "_bounty",
          "type": "uint256"
        },
        {
          "internalType": "string",
          "name": "_timeStamp",
          "type": "string"
        }
      ],
      "name": "AskMyQuestion",
      "outputs": [],
      "stateMutability": "payable",
      "type": "function"
    },
    {
      "inputs": [
        {
          "internalType": "address",
          "name": "to",
          "type": "address"
        },
        {
          "internalType": "uint256",
          "name": "tokenId",
          "type": "uint256"
        }
      ],
      "name": "approve",
      "outputs": [],
      "stateMutability": "nonpayable",
      "type": "function"
    },
    {
      "inputs": [
        {
          "internalType": "address",
          "name": "owner",
          "type": "address"
        }
      ],
      "name": "balanceOf",
      "outputs": [
        {
          "internalType": "uint256",
          "name": "",
          "type": "uint256"
        }
      ],
      "stateMutability": "view",
      "type": "function"
    },
    {
      "inputs": [],
      "name": "getAllQuestions",
      "outputs": [
        {
          "components": [
            {
              "internalType": "uint256",
              "name": "dna",
              "type": "uint256"
            },
            {
              "internalType": "string",
              "name": "creator",
              "type": "string"
            },
            {
              "internalType": "string",
              "name": "question",
              "type": "string"
            },
            {
              "internalType": "uint256",
              "name": "bounty",
              "type": "uint256"
            },
            {
              "internalType": "string",
              "name": "timeLeft",
              "type": "string"
            }
          ],
          "internalType": "struct KSquestionNFT.KSquestion[]",
          "name": "",
          "type": "tuple[]"
        }
      ],
      "stateMutability": "view",
      "type": "function"
    },
    {
      "inputs": [
        {
          "internalType": "uint256",
          "name": "tokenId",
          "type": "uint256"
        }
      ],
      "name": "getApproved",
      "outputs": [
        {
          "internalType": "address",
          "name": "",
          "type": "address"
        }
      ],
      "stateMutability": "view",
      "type": "function"
    },
    {
      "inputs": [
        {
          "internalType": "string",
          "name": "_creator",
          "type": "string"
        },
        {
          "internalType": "string",
          "name": "_question",
          "type": "string"
        }
      ],
      "name": "getQuestionID",
      "outputs": [
        {
          "internalType": "uint256",
          "name": "",
          "type": "uint256"
        }
      ],
      "stateMutability": "view",
      "type": "function"
    },
    {
      "inputs": [
        {
          "internalType": "address",
          "name": "owner",
          "type": "address"
        },
        {
          "internalType": "address",
          "name": "operator",
          "type": "address"
        }
      ],
      "name": "isApprovedForAll",
      "outputs": [
        {
          "internalType": "bool",
          "name": "",
          "type": "bool"
        }
      ],
      "stateMutability": "view",
      "type": "function"
    },
    {
      "inputs": [],
      "name": "name",
      "outputs": [
        {
          "internalType": "string",
          "name": "",
          "type": "string"
        }
      ],
      "stateMutability": "view",
      "type": "function"
    },
    {
      "inputs": [],
      "name": "owner",
      "outputs": [
        {
          "internalType": "address",
          "name": "",
          "type": "address"
        }
      ],
      "stateMutability": "view",
      "type": "function"
    },
    {
      "inputs": [
        {
          "internalType": "uint256",
          "name": "tokenId",
          "type": "uint256"
        }
      ],
      "name": "ownerOf",
      "outputs": [
        {
          "internalType": "address",
          "name": "",
          "type": "address"
        }
      ],
      "stateMutability": "view",
      "type": "function"
    },
    {
      "inputs": [
        {
          "internalType": "uint256",
          "name": "",
          "type": "uint256"
        }
      ],
      "name": "questions",
      "outputs": [
        {
          "internalType": "uint256",
          "name": "dna",
          "type": "uint256"
        },
        {
          "internalType": "string",
          "name": "creator",
          "type": "string"
        },
        {
          "internalType": "string",
          "name": "question",
          "type": "string"
        },
        {
          "internalType": "uint256",
          "name": "bounty",
          "type": "uint256"
        },
        {
          "internalType": "string",
          "name": "timeLeft",
          "type": "string"
        }
      ],
      "stateMutability": "view",
      "type": "function"
    },
    {
      "inputs": [],
      "name": "renounceOwnership",
      "outputs": [],
      "stateMutability": "nonpayable",
      "type": "function"
    },
    {
      "inputs": [
        {
          "internalType": "address",
          "name": "from",
          "type": "address"
        },
        {
          "internalType": "address",
          "name": "to",
          "type": "address"
        },
        {
          "internalType": "uint256",
          "name": "tokenId",
          "type": "uint256"
        }
      ],
      "name": "safeTransferFrom",
      "outputs": [],
      "stateMutability": "nonpayable",
      "type": "function"
    },
    {
      "inputs": [
        {
          "internalType": "address",
          "name": "from",
          "type": "address"
        },
        {
          "internalType": "address",
          "name": "to",
          "type": "address"
        },
        {
          "internalType": "uint256",
          "name": "tokenId",
          "type": "uint256"
        },
        {
          "internalType": "bytes",
          "name": "data",
          "type": "bytes"
        }
      ],
      "name": "safeTransferFrom",
      "outputs": [],
      "stateMutability": "nonpayable",
      "type": "function"
    },
    {
      "inputs": [
        {
          "internalType": "address",
          "name": "operator",
          "type": "address"
        },
        {
          "internalType": "bool",
          "name": "approved",
          "type": "bool"
        }
      ],
      "name": "setApprovalForAll",
      "outputs": [],
      "stateMutability": "nonpayable",
      "type": "function"
    },
    {
      "inputs": [
        {
          "internalType": "bytes4",
          "name": "interfaceId",
          "type": "bytes4"
        }
      ],
      "name": "supportsInterface",
      "outputs": [
        {
          "internalType": "bool",
          "name": "",
          "type": "bool"
        }
      ],
      "stateMutability": "view",
      "type": "function"
    },
    {
      "inputs": [],
      "name": "symbol",
      "outputs": [
        {
          "internalType": "string",
          "name": "",
          "type": "string"
        }
      ],
      "stateMutability": "view",
      "type": "function"
    },
    {
      "inputs": [
        {
          "internalType": "uint256",
          "name": "tokenId",
          "type": "uint256"
        }
      ],
      "name": "tokenURI",
      "outputs": [
        {
          "internalType": "string",
          "name": "",
          "type": "string"
        }
      ],
      "stateMutability": "view",
      "type": "function"
    },
    {
      "inputs": [
        {
          "internalType": "address",
          "name": "from",
          "type": "address"
        },
        {
          "internalType": "address",
          "name": "to",
          "type": "address"
        },
        {
          "internalType": "uint256",
          "name": "tokenId",
          "type": "uint256"
        }
      ],
      "name": "transferFrom",
      "outputs": [],
      "stateMutability": "nonpayable",
      "type": "function"
    },
    {
      "inputs": [
        {
          "internalType": "address",
          "name": "newOwner",
          "type": "address"
        }
      ],
      "name": "transferOwnership",
      "outputs": [],
      "stateMutability": "nonpayable",
      "type": "function"
    }
  ],
  "bytecode": "0x608060405260016008553480156200001657600080fd5b506040518060400160405280601781526020017f4b6e6f776c656467652053776170205175657374696f6e0000000000000000008152506040518060400160405280600381526020017f4b53510000000000000000000000000000000000000000000000000000000000815250816000908162000094919062000417565b508060019081620000a6919062000417565b505050620000c9620000bd620000cf60201b60201c565b620000d760201b60201c565b620004fe565b600033905090565b6000600660009054906101000a900473ffffffffffffffffffffffffffffffffffffffff16905081600660006101000a81548173ffffffffffffffffffffffffffffffffffffffff021916908373ffffffffffffffffffffffffffffffffffffffff1602179055508173ffffffffffffffffffffffffffffffffffffffff168173ffffffffffffffffffffffffffffffffffffffff167f8be0079c531659141344cd1fd0a4f28419497f9722a3daafe3b4186f6b6457e060405160405180910390a35050565b600081519050919050565b7f4e487b7100000000000000000000000000000000000000000000000000000000600052604160045260246000fd5b7f4e487b7100000000000000000000000000000000000000000000000000000000600052602260045260246000fd5b600060028204905060018216806200021f57607f821691505b602082108103620002355762000234620001d7565b5b50919050565b60008190508160005260206000209050919050565b60006020601f8301049050919050565b600082821b905092915050565b6000600883026200029f7fffffffffffffffffffffffffffffffffffffffffffffffffffffffffffffffff8262000260565b620002ab868362000260565b95508019841693508086168417925050509392505050565b6000819050919050565b6000819050919050565b6000620002f8620002f2620002ec84620002c3565b620002cd565b620002c3565b9050919050565b6000819050919050565b6200031483620002d7565b6200032c6200032382620002ff565b8484546200026d565b825550505050565b600090565b6200034362000334565b6200035081848462000309565b505050565b5b8181101562000378576200036c60008262000339565b60018101905062000356565b5050565b601f821115620003c75762000391816200023b565b6200039c8462000250565b81016020851015620003ac578190505b620003c4620003bb8562000250565b83018262000355565b50505b505050565b600082821c905092915050565b6000620003ec60001984600802620003cc565b1980831691505092915050565b6000620004078383620003d9565b9150826002028217905092915050565b62000422826200019d565b67ffffffffffffffff8111156200043e576200043d620001a8565b5b6200044a825462000206565b620004578282856200037c565b600060209050601f8311600181146200048f57600084156200047a578287015190505b620004868582620003f9565b865550620004f6565b601f1984166200049f866200023b565b60005b82811015620004c957848901518255600182019150602085019450602081019050620004a2565b86831015620004e95784890151620004e5601f891682620003d9565b8355505b6001600288020188555050505b505050505050565b61394f806200050e6000396000f3fe60806040526004361061011f5760003560e01c806370a08231116100a0578063b88d4fde11610064578063b88d4fde146103fd578063c87b56dd14610426578063e985e9c514610463578063f2fde38b146104a0578063f8d3c705146104c95761011f565b806370a082311461032a578063715018a6146103675780638da5cb5b1461037e57806395d89b41146103a9578063a22cb465146103d45761011f565b806323b872dd116100e757806323b872dd1461022f5780632af9338e1461025857806331b1b9781461028357806342842e0e146102c45780636352211e146102ed5761011f565b806301ffc9a71461012457806306fdde0314610161578063081812fc1461018c578063092a3b46146101c9578063095ea7b314610206575b600080fd5b34801561013057600080fd5b5061014b6004803603810190610146919061233e565b6104e5565b6040516101589190612386565b60405180910390f35b34801561016d57600080fd5b506101766105c7565b6040516101839190612431565b60405180910390f35b34801561019857600080fd5b506101b360048036038101906101ae9190612489565b610659565b6040516101c091906124f7565b60405180910390f35b3480156101d557600080fd5b506101f060048036038101906101eb9190612647565b61069f565b6040516101fd91906126ce565b60405180910390f35b34801561021257600080fd5b5061022d60048036038101906102289190612715565b610725565b005b34801561023b57600080fd5b5061025660048036038101906102519190612755565b61083c565b005b34801561026457600080fd5b5061026d61089c565b60405161027a9190612947565b60405180910390f35b34801561028f57600080fd5b506102aa60048036038101906102a59190612489565b610ac5565b6040516102bb959493929190612969565b60405180910390f35b3480156102d057600080fd5b506102eb60048036038101906102e69190612755565b610ca3565b005b3480156102f957600080fd5b50610314600480360381019061030f9190612489565b610cc3565b60405161032191906124f7565b60405180910390f35b34801561033657600080fd5b50610351600480360381019061034c91906129d1565b610d49565b60405161035e91906126ce565b60405180910390f35b34801561037357600080fd5b5061037c610e00565b005b34801561038a57600080fd5b50610393610e14565b6040516103a091906124f7565b60405180910390f35b3480156103b557600080fd5b506103be610e3e565b6040516103cb9190612431565b60405180910390f35b3480156103e057600080fd5b506103fb60048036038101906103f69190612a2a565b610ed0565b005b34801561040957600080fd5b50610424600480360381019061041f9190612b0b565b610ee6565b005b34801561043257600080fd5b5061044d60048036038101906104489190612489565b610f48565b60405161045a9190612431565b60405180910390f35b34801561046f57600080fd5b5061048a60048036038101906104859190612b8e565b610fb0565b6040516104979190612386565b60405180910390f35b3480156104ac57600080fd5b506104c760048036038101906104c291906129d1565b611044565b005b6104e360048036038101906104de9190612bce565b6110c7565b005b60007f80ac58cd000000000000000000000000000000000000000000000000000000007bffffffffffffffffffffffffffffffffffffffffffffffffffffffff1916827bffffffffffffffffffffffffffffffffffffffffffffffffffffffff191614806105b057507f5b5e139f000000000000000000000000000000000000000000000000000000007bffffffffffffffffffffffffffffffffffffffffffffffffffffffff1916827bffffffffffffffffffffffffffffffffffffffffffffffffffffffff1916145b806105c057506105bf826110e9565b5b9050919050565b6060600080546105d690612cb8565b80601f016020809104026020016040519081016040528092919081815260200182805461060290612cb8565b801561064f5780601f106106245761010080835404028352916020019161064f565b820191906000526020600020905b81548152906001019060200180831161063257829003601f168201915b5050505050905090565b600061066482611153565b6004600083815260200190815260200160002060009054906101000a900473ffffffffffffffffffffffffffffffffffffffff169050919050565b6000806040518060200160405280600081525090508084846040516020016106c993929190612d30565b60405160208183030381529060405290506000816040516020016106ed9190612d9d565b6040516020818303038152906040528051906020012060001c9050662386f26fc100008161071b9190612de3565b9250505092915050565b600061073082610cc3565b90508073ffffffffffffffffffffffffffffffffffffffff168373ffffffffffffffffffffffffffffffffffffffff16036107a0576040517f08c379a000000000000000000000000000000000000000000000000000000000815260040161079790612e86565b60405180910390fd5b8073ffffffffffffffffffffffffffffffffffffffff166107bf61119e565b73ffffffffffffffffffffffffffffffffffffffff1614806107ee57506107ed816107e861119e565b610fb0565b5b61082d576040517f08c379a000000000000000000000000000000000000000000000000000000000815260040161082490612f18565b60405180910390fd5b61083783836111a6565b505050565b61084d61084761119e565b8261125f565b61088c576040517f08c379a000000000000000000000000000000000000000000000000000000000815260040161088390612faa565b60405180910390fd5b6108978383836112f4565b505050565b60606007805480602002602001604051908101604052809291908181526020016000905b82821015610abc57838290600052602060002090600502016040518060a0016040529081600082015481526020016001820180546108fd90612cb8565b80601f016020809104026020016040519081016040528092919081815260200182805461092990612cb8565b80156109765780601f1061094b57610100808354040283529160200191610976565b820191906000526020600020905b81548152906001019060200180831161095957829003601f168201915b5050505050815260200160028201805461098f90612cb8565b80601f01602080910402602001604051908101604052809291908181526020018280546109bb90612cb8565b8015610a085780601f106109dd57610100808354040283529160200191610a08565b820191906000526020600020905b8154815290600101906020018083116109eb57829003601f168201915b5050505050815260200160038201548152602001600482018054610a2b90612cb8565b80601f0160208091040260200160405190810160405280929190818152602001828054610a5790612cb8565b8015610aa45780601f10610a7957610100808354040283529160200191610aa4565b820191906000526020600020905b815481529060010190602001808311610a8757829003601f168201915b505050505081525050815260200190600101906108c0565b50505050905090565b60078181548110610ad557600080fd5b9060005260206000209060050201600091509050806000015490806001018054610afe90612cb8565b80601f0160208091040260200160405190810160405280929190818152602001828054610b2a90612cb8565b8015610b775780601f10610b4c57610100808354040283529160200191610b77565b820191906000526020600020905b815481529060010190602001808311610b5a57829003601f168201915b505050505090806002018054610b8c90612cb8565b80601f0160208091040260200160405190810160405280929190818152602001828054610bb890612cb8565b8015610c055780601f10610bda57610100808354040283529160200191610c05565b820191906000526020600020905b815481529060010190602001808311610be857829003601f168201915b505050505090806003015490806004018054610c2090612cb8565b80601f0160208091040260200160405190810160405280929190818152602001828054610c4c90612cb8565b8015610c995780601f10610c6e57610100808354040283529160200191610c99565b820191906000526020600020905b815481529060010190602001808311610c7c57829003601f168201915b5050505050905085565b610cbe83838360405180602001604052806000815250610ee6565b505050565b600080610ccf836115ed565b9050600073ffffffffffffffffffffffffffffffffffffffff168173ffffffffffffffffffffffffffffffffffffffff1603610d40576040517f08c379a0000000000000000000000000000000000000000000000000000000008152600401610d3790613016565b60405180910390fd5b80915050919050565b60008073ffffffffffffffffffffffffffffffffffffffff168273ffffffffffffffffffffffffffffffffffffffff1603610db9576040517f08c379a0000000000000000000000000000000000000000000000000000000008152600401610db0906130a8565b60405180910390fd5b600360008373ffffffffffffffffffffffffffffffffffffffff1673ffffffffffffffffffffffffffffffffffffffff168152602001908152602001600020549050919050565b610e0861162a565b610e1260006116a8565b565b6000600660009054906101000a900473ffffffffffffffffffffffffffffffffffffffff16905090565b606060018054610e4d90612cb8565b80601f0160208091040260200160405190810160405280929190818152602001828054610e7990612cb8565b8015610ec65780601f10610e9b57610100808354040283529160200191610ec6565b820191906000526020600020905b815481529060010190602001808311610ea957829003601f168201915b5050505050905090565b610ee2610edb61119e565b838361176e565b5050565b610ef7610ef161119e565b8361125f565b610f36576040517f08c379a0000000000000000000000000000000000000000000000000000000008152600401610f2d90612faa565b60405180910390fd5b610f42848484846118da565b50505050565b6060610f5382611153565b6000610f5d611936565b90506000815111610f7d5760405180602001604052806000815250610fa8565b80610f878461194d565b604051602001610f989291906130c8565b6040516020818303038152906040525b915050919050565b6000600560008473ffffffffffffffffffffffffffffffffffffffff1673ffffffffffffffffffffffffffffffffffffffff16815260200190815260200160002060008373ffffffffffffffffffffffffffffffffffffffff1673ffffffffffffffffffffffffffffffffffffffff16815260200190815260200160002060009054906101000a900460ff16905092915050565b61104c61162a565b600073ffffffffffffffffffffffffffffffffffffffff168173ffffffffffffffffffffffffffffffffffffffff16036110bb576040517f08c379a00000000000000000000000000000000000000000000000000000000081526004016110b29061315e565b60405180910390fd5b6110c4816116a8565b50565b60006110d38585611a1b565b90506110e28186868686611aa1565b5050505050565b60007f01ffc9a7000000000000000000000000000000000000000000000000000000007bffffffffffffffffffffffffffffffffffffffffffffffffffffffff1916827bffffffffffffffffffffffffffffffffffffffffffffffffffffffff1916149050919050565b61115c81611bd2565b61119b576040517f08c379a000000000000000000000000000000000000000000000000000000000815260040161119290613016565b60405180910390fd5b50565b600033905090565b816004600083815260200190815260200160002060006101000a81548173ffffffffffffffffffffffffffffffffffffffff021916908373ffffffffffffffffffffffffffffffffffffffff160217905550808273ffffffffffffffffffffffffffffffffffffffff1661121983610cc3565b73ffffffffffffffffffffffffffffffffffffffff167f8c5be1e5ebec7d5bd14f71427d1e84f3dd0314c0f7b2291e5b200ac8c7c3b92560405160405180910390a45050565b60008061126b83610cc3565b90508073ffffffffffffffffffffffffffffffffffffffff168473ffffffffffffffffffffffffffffffffffffffff1614806112ad57506112ac8185610fb0565b5b806112eb57508373ffffffffffffffffffffffffffffffffffffffff166112d384610659565b73ffffffffffffffffffffffffffffffffffffffff16145b91505092915050565b8273ffffffffffffffffffffffffffffffffffffffff1661131482610cc3565b73ffffffffffffffffffffffffffffffffffffffff161461136a576040517f08c379a0000000000000000000000000000000000000000000000000000000008152600401611361906131f0565b60405180910390fd5b600073ffffffffffffffffffffffffffffffffffffffff168273ffffffffffffffffffffffffffffffffffffffff16036113d9576040517f08c379a00000000000000000000000000000000000000000000000000000000081526004016113d090613282565b60405180910390fd5b6113e68383836001611c13565b8273ffffffffffffffffffffffffffffffffffffffff1661140682610cc3565b73ffffffffffffffffffffffffffffffffffffffff161461145c576040517f08c379a0000000000000000000000000000000000000000000000000000000008152600401611453906131f0565b60405180910390fd5b6004600082815260200190815260200160002060006101000a81549073ffffffffffffffffffffffffffffffffffffffff02191690556001600360008573ffffffffffffffffffffffffffffffffffffffff1673ffffffffffffffffffffffffffffffffffffffff168152602001908152602001600020600082825403925050819055506001600360008473ffffffffffffffffffffffffffffffffffffffff1673ffffffffffffffffffffffffffffffffffffffff16815260200190815260200160002060008282540192505081905550816002600083815260200190815260200160002060006101000a81548173ffffffffffffffffffffffffffffffffffffffff021916908373ffffffffffffffffffffffffffffffffffffffff160217905550808273ffffffffffffffffffffffffffffffffffffffff168473ffffffffffffffffffffffffffffffffffffffff167fddf252ad1be2c89b69c2b068fc378daa952ba7f163c4a11628f55a4df523b3ef60405160405180910390a46115e88383836001611d39565b505050565b60006002600083815260200190815260200160002060009054906101000a900473ffffffffffffffffffffffffffffffffffffffff169050919050565b61163261119e565b73ffffffffffffffffffffffffffffffffffffffff16611650610e14565b73ffffffffffffffffffffffffffffffffffffffff16146116a6576040517f08c379a000000000000000000000000000000000000000000000000000000000815260040161169d906132ee565b60405180910390fd5b565b6000600660009054906101000a900473ffffffffffffffffffffffffffffffffffffffff16905081600660006101000a81548173ffffffffffffffffffffffffffffffffffffffff021916908373ffffffffffffffffffffffffffffffffffffffff1602179055508173ffffffffffffffffffffffffffffffffffffffff168173ffffffffffffffffffffffffffffffffffffffff167f8be0079c531659141344cd1fd0a4f28419497f9722a3daafe3b4186f6b6457e060405160405180910390a35050565b8173ffffffffffffffffffffffffffffffffffffffff168373ffffffffffffffffffffffffffffffffffffffff16036117dc576040517f08c379a00000000000000000000000000000000000000000000000000000000081526004016117d39061335a565b60405180910390fd5b80600560008573ffffffffffffffffffffffffffffffffffffffff1673ffffffffffffffffffffffffffffffffffffffff16815260200190815260200160002060008473ffffffffffffffffffffffffffffffffffffffff1673ffffffffffffffffffffffffffffffffffffffff16815260200190815260200160002060006101000a81548160ff0219169083151502179055508173ffffffffffffffffffffffffffffffffffffffff168373ffffffffffffffffffffffffffffffffffffffff167f17307eab39ab6107e8899845ad3d59bd9653f200f220920489ca2b5937696c31836040516118cd9190612386565b60405180910390a3505050565b6118e58484846112f4565b6118f184848484611d3f565b611930576040517f08c379a0000000000000000000000000000000000000000000000000000000008152600401611927906133ec565b60405180910390fd5b50505050565b606060405180602001604052806000815250905090565b60606000600161195c84611ec6565b01905060008167ffffffffffffffff81111561197b5761197a61251c565b5b6040519080825280601f01601f1916602001820160405280156119ad5781602001600182028036833780820191505090505b509050600082602001820190505b600115611a10578080600190039150507f3031323334353637383961626364656600000000000000000000000000000000600a86061a8153600a8581611a0457611a03612db4565b5b049450600085036119bb575b819350505050919050565b600080604051806020016040528060008152509050808484604051602001611a4593929190612d30565b6040516020818303038152906040529050600081604051602001611a699190612d9d565b6040516020818303038152906040528051906020012060001c9050662386f26fc1000081611a979190612de3565b9250505092915050565b60006040518060a001604052808781526020018681526020018581526020018481526020018381525090506007819080600181540180825580915050600190039060005260206000209060050201600090919091909150600082015181600001556020820151816001019081611b1791906135b8565b506040820151816002019081611b2d91906135b8565b50606082015181600301556080820151816004019081611b4d91906135b8565b505050611b5c33600854612019565b3373ffffffffffffffffffffffffffffffffffffffff167f11526b325e65db24c8395c8a0067dd4c4fad30bb234d814371d0ac1ca9baf1d88787878787604051611baa959493929190612969565b60405180910390a260086000815480929190611bc5906136b9565b9190505550505050505050565b60008073ffffffffffffffffffffffffffffffffffffffff16611bf4836115ed565b73ffffffffffffffffffffffffffffffffffffffff1614159050919050565b6001811115611d3357600073ffffffffffffffffffffffffffffffffffffffff168473ffffffffffffffffffffffffffffffffffffffff1614611ca75780600360008673ffffffffffffffffffffffffffffffffffffffff1673ffffffffffffffffffffffffffffffffffffffff1681526020019081526020016000206000828254611c9f9190613701565b925050819055505b600073ffffffffffffffffffffffffffffffffffffffff168373ffffffffffffffffffffffffffffffffffffffff1614611d325780600360008573ffffffffffffffffffffffffffffffffffffffff1673ffffffffffffffffffffffffffffffffffffffff1681526020019081526020016000206000828254611d2a9190613735565b925050819055505b5b50505050565b50505050565b6000611d608473ffffffffffffffffffffffffffffffffffffffff16612037565b15611eb9578373ffffffffffffffffffffffffffffffffffffffff1663150b7a02611d8961119e565b8786866040518563ffffffff1660e01b8152600401611dab94939291906137b3565b6020604051808303816000875af1925050508015611de757506040513d601f19601f82011682018060405250810190611de49190613814565b60015b611e69573d8060008114611e17576040519150601f19603f3d011682016040523d82523d6000602084013e611e1c565b606091505b506000815103611e61576040517f08c379a0000000000000000000000000000000000000000000000000000000008152600401611e58906133ec565b60405180910390fd5b805181602001fd5b63150b7a0260e01b7bffffffffffffffffffffffffffffffffffffffffffffffffffffffff1916817bffffffffffffffffffffffffffffffffffffffffffffffffffffffff191614915050611ebe565b600190505b949350505050565b600080600090507a184f03e93ff9f4daa797ed6e38ed64bf6a1f0100000000000000008310611f24577a184f03e93ff9f4daa797ed6e38ed64bf6a1f0100000000000000008381611f1a57611f19612db4565b5b0492506040810190505b6d04ee2d6d415b85acef81000000008310611f61576d04ee2d6d415b85acef81000000008381611f5757611f56612db4565b5b0492506020810190505b662386f26fc100008310611f9057662386f26fc100008381611f8657611f85612db4565b5b0492506010810190505b6305f5e1008310611fb9576305f5e1008381611faf57611fae612db4565b5b0492506008810190505b6127108310611fde576127108381611fd457611fd3612db4565b5b0492506004810190505b606483106120015760648381611ff757611ff6612db4565b5b0492506002810190505b600a8310612010576001810190505b80915050919050565b61203382826040518060200160405280600081525061205a565b5050565b6000808273ffffffffffffffffffffffffffffffffffffffff163b119050919050565b61206483836120b5565b6120716000848484611d3f565b6120b0576040517f08c379a00000000000000000000000000000000000000000000000000000000081526004016120a7906133ec565b60405180910390fd5b505050565b600073ffffffffffffffffffffffffffffffffffffffff168273ffffffffffffffffffffffffffffffffffffffff1603612124576040517f08c379a000000000000000000000000000000000000000000000000000000000815260040161211b9061388d565b60405180910390fd5b61212d81611bd2565b1561216d576040517f08c379a0000000000000000000000000000000000000000000000000000000008152600401612164906138f9565b60405180910390fd5b61217b600083836001611c13565b61218481611bd2565b156121c4576040517f08c379a00000000000000000000000000000000000000000000000000000000081526004016121bb906138f9565b60405180910390fd5b6001600360008473ffffffffffffffffffffffffffffffffffffffff1673ffffffffffffffffffffffffffffffffffffffff16815260200190815260200160002060008282540192505081905550816002600083815260200190815260200160002060006101000a81548173ffffffffffffffffffffffffffffffffffffffff021916908373ffffffffffffffffffffffffffffffffffffffff160217905550808273ffffffffffffffffffffffffffffffffffffffff16600073ffffffffffffffffffffffffffffffffffffffff167fddf252ad1be2c89b69c2b068fc378daa952ba7f163c4a11628f55a4df523b3ef60405160405180910390a46122ce600083836001611d39565b5050565b6000604051905090565b600080fd5b600080fd5b60007fffffffff0000000000000000000000000000000000000000000000000000000082169050919050565b61231b816122e6565b811461232657600080fd5b50565b60008135905061233881612312565b92915050565b600060208284031215612354576123536122dc565b5b600061236284828501612329565b91505092915050565b60008115159050919050565b6123808161236b565b82525050565b600060208201905061239b6000830184612377565b92915050565b600081519050919050565b600082825260208201905092915050565b60005b838110156123db5780820151818401526020810190506123c0565b60008484015250505050565b6000601f19601f8301169050919050565b6000612403826123a1565b61240d81856123ac565b935061241d8185602086016123bd565b612426816123e7565b840191505092915050565b6000602082019050818103600083015261244b81846123f8565b905092915050565b6000819050919050565b61246681612453565b811461247157600080fd5b50565b6000813590506124838161245d565b92915050565b60006020828403121561249f5761249e6122dc565b5b60006124ad84828501612474565b91505092915050565b600073ffffffffffffffffffffffffffffffffffffffff82169050919050565b60006124e1826124b6565b9050919050565b6124f1816124d6565b82525050565b600060208201905061250c60008301846124e8565b92915050565b600080fd5b600080fd5b7f4e487b7100000000000000000000000000000000000000000000000000000000600052604160045260246000fd5b612554826123e7565b810181811067ffffffffffffffff821117156125735761257261251c565b5b80604052505050565b60006125866122d2565b9050612592828261254b565b919050565b600067ffffffffffffffff8211156125b2576125b161251c565b5b6125bb826123e7565b9050602081019050919050565b82818337600083830152505050565b60006125ea6125e584612597565b61257c565b90508281526020810184848401111561260657612605612517565b5b6126118482856125c8565b509392505050565b600082601f83011261262e5761262d612512565b5b813561263e8482602086016125d7565b91505092915050565b6000806040838503121561265e5761265d6122dc565b5b600083013567ffffffffffffffff81111561267c5761267b6122e1565b5b61268885828601612619565b925050602083013567ffffffffffffffff8111156126a9576126a86122e1565b5b6126b585828601612619565b9150509250929050565b6126c881612453565b82525050565b60006020820190506126e360008301846126bf565b92915050565b6126f2816124d6565b81146126fd57600080fd5b50565b60008135905061270f816126e9565b92915050565b6000806040838503121561272c5761272b6122dc565b5b600061273a85828601612700565b925050602061274b85828601612474565b9150509250929050565b60008060006060848603121561276e5761276d6122dc565b5b600061277c86828701612700565b935050602061278d86828701612700565b925050604061279e86828701612474565b9150509250925092565b600081519050919050565b600082825260208201905092915050565b6000819050602082019050919050565b6127dd81612453565b82525050565b600082825260208201905092915050565b60006127ff826123a1565b61280981856127e3565b93506128198185602086016123bd565b612822816123e7565b840191505092915050565b600060a08301600083015161284560008601826127d4565b506020830151848203602086015261285d82826127f4565b9150506040830151848203604086015261287782826127f4565b915050606083015161288c60608601826127d4565b50608083015184820360808601526128a482826127f4565b9150508091505092915050565b60006128bd838361282d565b905092915050565b6000602082019050919050565b60006128dd826127a8565b6128e781856127b3565b9350836020820285016128f9856127c4565b8060005b85811015612935578484038952815161291685826128b1565b9450612921836128c5565b925060208a019950506001810190506128fd565b50829750879550505050505092915050565b6000602082019050818103600083015261296181846128d2565b905092915050565b600060a08201905061297e60008301886126bf565b818103602083015261299081876123f8565b905081810360408301526129a481866123f8565b90506129b360608301856126bf565b81810360808301526129c581846123f8565b90509695505050505050565b6000602082840312156129e7576129e66122dc565b5b60006129f584828501612700565b91505092915050565b612a078161236b565b8114612a1257600080fd5b50565b600081359050612a24816129fe565b92915050565b60008060408385031215612a4157612a406122dc565b5b6000612a4f85828601612700565b9250506020612a6085828601612a15565b9150509250929050565b600067ffffffffffffffff821115612a8557612a8461251c565b5b612a8e826123e7565b9050602081019050919050565b6000612aae612aa984612a6a565b61257c565b905082815260208101848484011115612aca57612ac9612517565b5b612ad58482856125c8565b509392505050565b600082601f830112612af257612af1612512565b5b8135612b02848260208601612a9b565b91505092915050565b60008060008060808587031215612b2557612b246122dc565b5b6000612b3387828801612700565b9450506020612b4487828801612700565b9350506040612b5587828801612474565b925050606085013567ffffffffffffffff811115612b7657612b756122e1565b5b612b8287828801612add565b91505092959194509250565b60008060408385031215612ba557612ba46122dc565b5b6000612bb385828601612700565b9250506020612bc485828601612700565b9150509250929050565b60008060008060808587031215612be857612be76122dc565b5b600085013567ffffffffffffffff811115612c0657612c056122e1565b5b612c1287828801612619565b945050602085013567ffffffffffffffff811115612c3357612c326122e1565b5b612c3f87828801612619565b9350506040612c5087828801612474565b925050606085013567ffffffffffffffff811115612c7157612c706122e1565b5b612c7d87828801612619565b91505092959194509250565b7f4e487b7100000000000000000000000000000000000000000000000000000000600052602260045260246000fd5b60006002820490506001821680612cd057607f821691505b602082108103612ce357612ce2612c89565b5b50919050565b600081519050919050565b600081905092915050565b6000612d0a82612ce9565b612d148185612cf4565b9350612d248185602086016123bd565b80840191505092915050565b6000612d3c8286612cff565b9150612d488285612cff565b9150612d548284612cff565b9150819050949350505050565b600081905092915050565b6000612d77826123a1565b612d818185612d61565b9350612d918185602086016123bd565b80840191505092915050565b6000612da98284612d6c565b915081905092915050565b7f4e487b7100000000000000000000000000000000000000000000000000000000600052601260045260246000fd5b6000612dee82612453565b9150612df983612453565b925082612e0957612e08612db4565b5b828206905092915050565b7f4552433732313a20617070726f76616c20746f2063757272656e74206f776e6560008201527f7200000000000000000000000000000000000000000000000000000000000000602082015250565b6000612e706021836123ac565b9150612e7b82612e14565b604082019050919050565b60006020820190508181036000830152612e9f81612e63565b9050919050565b7f4552433732313a20617070726f76652063616c6c6572206973206e6f7420746f60008201527f6b656e206f776e6572206f7220617070726f76656420666f7220616c6c000000602082015250565b6000612f02603d836123ac565b9150612f0d82612ea6565b604082019050919050565b60006020820190508181036000830152612f3181612ef5565b9050919050565b7f4552433732313a2063616c6c6572206973206e6f7420746f6b656e206f776e6560008201527f72206f7220617070726f76656400000000000000000000000000000000000000602082015250565b6000612f94602d836123ac565b9150612f9f82612f38565b604082019050919050565b60006020820190508181036000830152612fc381612f87565b9050919050565b7f4552433732313a20696e76616c696420746f6b656e2049440000000000000000600082015250565b60006130006018836123ac565b915061300b82612fca565b602082019050919050565b6000602082019050818103600083015261302f81612ff3565b9050919050565b7f4552433732313a2061646472657373207a65726f206973206e6f74206120766160008201527f6c6964206f776e65720000000000000000000000000000000000000000000000602082015250565b60006130926029836123ac565b915061309d82613036565b604082019050919050565b600060208201905081810360008301526130c181613085565b9050919050565b60006130d48285612d6c565b91506130e08284612d6c565b91508190509392505050565b7f4f776e61626c653a206e6577206f776e657220697320746865207a65726f206160008201527f6464726573730000000000000000000000000000000000000000000000000000602082015250565b60006131486026836123ac565b9150613153826130ec565b604082019050919050565b600060208201905081810360008301526131778161313b565b9050919050565b7f4552433732313a207472616e736665722066726f6d20696e636f72726563742060008201527f6f776e6572000000000000000000000000000000000000000000000000000000602082015250565b60006131da6025836123ac565b91506131e58261317e565b604082019050919050565b60006020820190508181036000830152613209816131cd565b9050919050565b7f4552433732313a207472616e7366657220746f20746865207a65726f2061646460008201527f7265737300000000000000000000000000000000000000000000000000000000602082015250565b600061326c6024836123ac565b915061327782613210565b604082019050919050565b6000602082019050818103600083015261329b8161325f565b9050919050565b7f4f776e61626c653a2063616c6c6572206973206e6f7420746865206f776e6572600082015250565b60006132d86020836123ac565b91506132e3826132a2565b602082019050919050565b60006020820190508181036000830152613307816132cb565b9050919050565b7f4552433732313a20617070726f766520746f2063616c6c657200000000000000600082015250565b60006133446019836123ac565b915061334f8261330e565b602082019050919050565b6000602082019050818103600083015261337381613337565b9050919050565b7f4552433732313a207472616e7366657220746f206e6f6e20455243373231526560008201527f63656976657220696d706c656d656e7465720000000000000000000000000000602082015250565b60006133d66032836123ac565b91506133e18261337a565b604082019050919050565b60006020820190508181036000830152613405816133c9565b9050919050565b60008190508160005260206000209050919050565b60006020601f8301049050919050565b600082821b905092915050565b60006008830261346e7fffffffffffffffffffffffffffffffffffffffffffffffffffffffffffffffff82613431565b6134788683613431565b95508019841693508086168417925050509392505050565b6000819050919050565b60006134b56134b06134ab84612453565b613490565b612453565b9050919050565b6000819050919050565b6134cf8361349a565b6134e36134db826134bc565b84845461343e565b825550505050565b600090565b6134f86134eb565b6135038184846134c6565b505050565b5b818110156135275761351c6000826134f0565b600181019050613509565b5050565b601f82111561356c5761353d8161340c565b61354684613421565b81016020851015613555578190505b61356961356185613421565b830182613508565b50505b505050565b600082821c905092915050565b600061358f60001984600802613571565b1980831691505092915050565b60006135a8838361357e565b9150826002028217905092915050565b6135c1826123a1565b67ffffffffffffffff8111156135da576135d961251c565b5b6135e48254612cb8565b6135ef82828561352b565b600060209050601f8311600181146136225760008415613610578287015190505b61361a858261359c565b865550613682565b601f1984166136308661340c565b60005b8281101561365857848901518255600182019150602085019450602081019050613633565b868310156136755784890151613671601f89168261357e565b8355505b6001600288020188555050505b505050505050565b7f4e487b7100000000000000000000000000000000000000000000000000000000600052601160045260246000fd5b60006136c482612453565b91507fffffffffffffffffffffffffffffffffffffffffffffffffffffffffffffffff82036136f6576136f561368a565b5b600182019050919050565b600061370c82612453565b915061371783612453565b925082820390508181111561372f5761372e61368a565b5b92915050565b600061374082612453565b915061374b83612453565b92508282019050808211156137635761376261368a565b5b92915050565b600082825260208201905092915050565b600061378582612ce9565b61378f8185613769565b935061379f8185602086016123bd565b6137a8816123e7565b840191505092915050565b60006080820190506137c860008301876124e8565b6137d560208301866124e8565b6137e260408301856126bf565b81810360608301526137f4818461377a565b905095945050505050565b60008151905061380e81612312565b92915050565b60006020828403121561382a576138296122dc565b5b6000613838848285016137ff565b91505092915050565b7f4552433732313a206d696e7420746f20746865207a65726f2061646472657373600082015250565b60006138776020836123ac565b915061388282613841565b602082019050919050565b600060208201905081810360008301526138a68161386a565b9050919050565b7f4552433732313a20746f6b656e20616c7265616479206d696e74656400000000600082015250565b60006138e3601c836123ac565b91506138ee826138ad565b602082019050919050565b60006020820190508181036000830152613912816138d6565b905091905056fea2646970667358221220fc3add80fa50d10bc538bf628883130f4c75686eefd8203512e10e234cc1d75e64736f6c63430008110033",
  "linkReferences": {},
  "deployedLinkReferences": {}
}