{
  "_format": "hh-sol-artifact-1",
  "contractName": "KSquestionNFT",
  "sourceName": "contracts/KSquestionNFTs.sol",
  "abi": [
    {
      "inputs": [],
      "stateMutability": "nonpayable",
      "type": "constructor"
    },
    {
      "anonymous": false,
      "inputs": [
        {
          "indexed": true,
          "internalType": "address",
          "name": "owner",
          "type": "address"
        },
        {
          "indexed": true,
          "internalType": "address",
          "name": "approved",
          "type": "address"
        },
        {
          "indexed": true,
          "internalType": "uint256",
          "name": "tokenId",
          "type": "uint256"
        }
      ],
      "name": "Approval",
      "type": "event"
    },
    {
      "anonymous": false,
      "inputs": [
        {
          "indexed": true,
          "internalType": "address",
          "name": "owner",
          "type": "address"
        },
        {
          "indexed": true,
          "internalType": "address",
          "name": "operator",
          "type": "address"
        },
        {
          "indexed": false,
          "internalType": "bool",
          "name": "approved",
          "type": "bool"
        }
      ],
      "name": "ApprovalForAll",
      "type": "event"
    },
    {
      "anonymous": false,
      "inputs": [
        {
          "indexed": true,
          "internalType": "address",
          "name": "owner",
          "type": "address"
        },
        {
          "indexed": false,
          "internalType": "uint256",
          "name": "dna",
          "type": "uint256"
        },
        {
          "indexed": false,
          "internalType": "string",
          "name": "creator",
          "type": "string"
        },
        {
          "indexed": false,
          "internalType": "string",
          "name": "question",
          "type": "string"
        },
        {
          "indexed": false,
          "internalType": "uint256",
          "name": "bounty",
          "type": "uint256"
        },
        {
          "indexed": false,
          "internalType": "string",
          "name": "timeLeft",
          "type": "string"
        }
      ],
      "name": "NewQuestion",
      "type": "event"
    },
    {
      "anonymous": false,
      "inputs": [
        {
          "indexed": true,
          "internalType": "address",
          "name": "previousOwner",
          "type": "address"
        },
        {
          "indexed": true,
          "internalType": "address",
          "name": "newOwner",
          "type": "address"
        }
      ],
      "name": "OwnershipTransferred",
      "type": "event"
    },
    {
      "anonymous": false,
      "inputs": [
        {
          "indexed": true,
          "internalType": "address",
          "name": "from",
          "type": "address"
        },
        {
          "indexed": true,
          "internalType": "address",
          "name": "to",
          "type": "address"
        },
        {
          "indexed": true,
          "internalType": "uint256",
          "name": "tokenId",
          "type": "uint256"
        }
      ],
      "name": "Transfer",
      "type": "event"
    },
    {
      "inputs": [
        {
          "internalType": "string",
          "name": "_creator",
          "type": "string"
        },
        {
          "internalType": "string",
          "name": "_question",
          "type": "string"
        },
        {
          "internalType": "uint256",
          "name": "_bounty",
          "type": "uint256"
        },
        {
          "internalType": "string",
          "name": "_timeStamp",
          "type": "string"
        }
      ],
      "name": "AskMyQuestion",
      "outputs": [],
      "stateMutability": "payable",
      "type": "function"
    },
    {
      "inputs": [
        {
          "internalType": "address",
          "name": "to",
          "type": "address"
        },
        {
          "internalType": "uint256",
          "name": "tokenId",
          "type": "uint256"
        }
      ],
      "name": "approve",
      "outputs": [],
      "stateMutability": "nonpayable",
      "type": "function"
    },
    {
      "inputs": [
        {
          "internalType": "address",
          "name": "owner",
          "type": "address"
        }
      ],
      "name": "balanceOf",
      "outputs": [
        {
          "internalType": "uint256",
          "name": "",
          "type": "uint256"
        }
      ],
      "stateMutability": "view",
      "type": "function"
    },
    {
      "inputs": [],
      "name": "getAllQuestions",
      "outputs": [
        {
          "components": [
            {
              "internalType": "uint256",
              "name": "dna",
              "type": "uint256"
            },
            {
              "internalType": "string",
              "name": "creator",
              "type": "string"
            },
            {
              "internalType": "string",
              "name": "question",
              "type": "string"
            },
            {
              "internalType": "uint256",
              "name": "bounty",
              "type": "uint256"
            },
            {
              "internalType": "string",
              "name": "timeLeft",
              "type": "string"
            }
          ],
          "internalType": "struct KSquestionNFT.KSquestion[]",
          "name": "",
          "type": "tuple[]"
        }
      ],
      "stateMutability": "view",
      "type": "function"
    },
    {
      "inputs": [
        {
          "internalType": "uint256",
          "name": "tokenId",
          "type": "uint256"
        }
      ],
      "name": "getApproved",
      "outputs": [
        {
          "internalType": "address",
          "name": "",
          "type": "address"
        }
      ],
      "stateMutability": "view",
      "type": "function"
    },
    {
      "inputs": [
        {
          "internalType": "address",
          "name": "owner",
          "type": "address"
        },
        {
          "internalType": "address",
          "name": "operator",
          "type": "address"
        }
      ],
      "name": "isApprovedForAll",
      "outputs": [
        {
          "internalType": "bool",
          "name": "",
          "type": "bool"
        }
      ],
      "stateMutability": "view",
      "type": "function"
    },
    {
      "inputs": [],
      "name": "name",
      "outputs": [
        {
          "internalType": "string",
          "name": "",
          "type": "string"
        }
      ],
      "stateMutability": "view",
      "type": "function"
    },
    {
      "inputs": [],
      "name": "owner",
      "outputs": [
        {
          "internalType": "address",
          "name": "",
          "type": "address"
        }
      ],
      "stateMutability": "view",
      "type": "function"
    },
    {
      "inputs": [
        {
          "internalType": "uint256",
          "name": "tokenId",
          "type": "uint256"
        }
      ],
      "name": "ownerOf",
      "outputs": [
        {
          "internalType": "address",
          "name": "",
          "type": "address"
        }
      ],
      "stateMutability": "view",
      "type": "function"
    },
    {
      "inputs": [
        {
          "internalType": "uint256",
          "name": "",
          "type": "uint256"
        }
      ],
      "name": "questions",
      "outputs": [
        {
          "internalType": "uint256",
          "name": "dna",
          "type": "uint256"
        },
        {
          "internalType": "string",
          "name": "creator",
          "type": "string"
        },
        {
          "internalType": "string",
          "name": "question",
          "type": "string"
        },
        {
          "internalType": "uint256",
          "name": "bounty",
          "type": "uint256"
        },
        {
          "internalType": "string",
          "name": "timeLeft",
          "type": "string"
        }
      ],
      "stateMutability": "view",
      "type": "function"
    },
    {
      "inputs": [],
      "name": "renounceOwnership",
      "outputs": [],
      "stateMutability": "nonpayable",
      "type": "function"
    },
    {
      "inputs": [
        {
          "internalType": "address",
          "name": "from",
          "type": "address"
        },
        {
          "internalType": "address",
          "name": "to",
          "type": "address"
        },
        {
          "internalType": "uint256",
          "name": "tokenId",
          "type": "uint256"
        }
      ],
      "name": "safeTransferFrom",
      "outputs": [],
      "stateMutability": "nonpayable",
      "type": "function"
    },
    {
      "inputs": [
        {
          "internalType": "address",
          "name": "from",
          "type": "address"
        },
        {
          "internalType": "address",
          "name": "to",
          "type": "address"
        },
        {
          "internalType": "uint256",
          "name": "tokenId",
          "type": "uint256"
        },
        {
          "internalType": "bytes",
          "name": "data",
          "type": "bytes"
        }
      ],
      "name": "safeTransferFrom",
      "outputs": [],
      "stateMutability": "nonpayable",
      "type": "function"
    },
    {
      "inputs": [
        {
          "internalType": "address",
          "name": "operator",
          "type": "address"
        },
        {
          "internalType": "bool",
          "name": "approved",
          "type": "bool"
        }
      ],
      "name": "setApprovalForAll",
      "outputs": [],
      "stateMutability": "nonpayable",
      "type": "function"
    },
    {
      "inputs": [
        {
          "internalType": "bytes4",
          "name": "interfaceId",
          "type": "bytes4"
        }
      ],
      "name": "supportsInterface",
      "outputs": [
        {
          "internalType": "bool",
          "name": "",
          "type": "bool"
        }
      ],
      "stateMutability": "view",
      "type": "function"
    },
    {
      "inputs": [],
      "name": "symbol",
      "outputs": [
        {
          "internalType": "string",
          "name": "",
          "type": "string"
        }
      ],
      "stateMutability": "view",
      "type": "function"
    },
    {
      "inputs": [
        {
          "internalType": "uint256",
          "name": "tokenId",
          "type": "uint256"
        }
      ],
      "name": "tokenURI",
      "outputs": [
        {
          "internalType": "string",
          "name": "",
          "type": "string"
        }
      ],
      "stateMutability": "view",
      "type": "function"
    },
    {
      "inputs": [
        {
          "internalType": "address",
          "name": "from",
          "type": "address"
        },
        {
          "internalType": "address",
          "name": "to",
          "type": "address"
        },
        {
          "internalType": "uint256",
          "name": "tokenId",
          "type": "uint256"
        }
      ],
      "name": "transferFrom",
      "outputs": [],
      "stateMutability": "nonpayable",
      "type": "function"
    },
    {
      "inputs": [
        {
          "internalType": "address",
          "name": "newOwner",
          "type": "address"
        }
      ],
      "name": "transferOwnership",
      "outputs": [],
      "stateMutability": "nonpayable",
      "type": "function"
    }
  ],
  "bytecode": "0x608060405260016008553480156200001657600080fd5b506040518060400160405280601781526020017f4b6e6f776c656467652053776170205175657374696f6e0000000000000000008152506040518060400160405280600381526020017f4b53510000000000000000000000000000000000000000000000000000000000815250816000908162000094919062000417565b508060019081620000a6919062000417565b505050620000c9620000bd620000cf60201b60201c565b620000d760201b60201c565b620004fe565b600033905090565b6000600660009054906101000a900473ffffffffffffffffffffffffffffffffffffffff16905081600660006101000a81548173ffffffffffffffffffffffffffffffffffffffff021916908373ffffffffffffffffffffffffffffffffffffffff1602179055508173ffffffffffffffffffffffffffffffffffffffff168173ffffffffffffffffffffffffffffffffffffffff167f8be0079c531659141344cd1fd0a4f28419497f9722a3daafe3b4186f6b6457e060405160405180910390a35050565b600081519050919050565b7f4e487b7100000000000000000000000000000000000000000000000000000000600052604160045260246000fd5b7f4e487b7100000000000000000000000000000000000000000000000000000000600052602260045260246000fd5b600060028204905060018216806200021f57607f821691505b602082108103620002355762000234620001d7565b5b50919050565b60008190508160005260206000209050919050565b60006020601f8301049050919050565b600082821b905092915050565b6000600883026200029f7fffffffffffffffffffffffffffffffffffffffffffffffffffffffffffffffff8262000260565b620002ab868362000260565b95508019841693508086168417925050509392505050565b6000819050919050565b6000819050919050565b6000620002f8620002f2620002ec84620002c3565b620002cd565b620002c3565b9050919050565b6000819050919050565b6200031483620002d7565b6200032c6200032382620002ff565b8484546200026d565b825550505050565b600090565b6200034362000334565b6200035081848462000309565b505050565b5b8181101562000378576200036c60008262000339565b60018101905062000356565b5050565b601f821115620003c75762000391816200023b565b6200039c8462000250565b81016020851015620003ac578190505b620003c4620003bb8562000250565b83018262000355565b50505b505050565b600082821c905092915050565b6000620003ec60001984600802620003cc565b1980831691505092915050565b6000620004078383620003d9565b9150826002028217905092915050565b62000422826200019d565b67ffffffffffffffff8111156200043e576200043d620001a8565b5b6200044a825462000206565b620004578282856200037c565b600060209050601f8311600181146200048f57600084156200047a578287015190505b620004868582620003f9565b865550620004f6565b601f1984166200049f866200023b565b60005b82811015620004c957848901518255600182019150602085019450602081019050620004a2565b86831015620004e95784890151620004e5601f891682620003d9565b8355505b6001600288020188555050505b505050505050565b613809806200050e6000396000f3fe6080604052600436106101145760003560e01c806370a08231116100a0578063b88d4fde11610064578063b88d4fde146103b5578063c87b56dd146103de578063e985e9c51461041b578063f2fde38b14610458578063f8d3c7051461048157610114565b806370a08231146102e2578063715018a61461031f5780638da5cb5b1461033657806395d89b4114610361578063a22cb4651461038c57610114565b806323b872dd116100e757806323b872dd146101e75780632af9338e1461021057806331b1b9781461023b57806342842e0e1461027c5780636352211e146102a557610114565b806301ffc9a71461011957806306fdde0314610156578063081812fc14610181578063095ea7b3146101be575b600080fd5b34801561012557600080fd5b50610140600480360381019061013b9190612270565b61049d565b60405161014d91906122b8565b60405180910390f35b34801561016257600080fd5b5061016b61057f565b6040516101789190612363565b60405180910390f35b34801561018d57600080fd5b506101a860048036038101906101a391906123bb565b610611565b6040516101b59190612429565b60405180910390f35b3480156101ca57600080fd5b506101e560048036038101906101e09190612470565b610657565b005b3480156101f357600080fd5b5061020e600480360381019061020991906124b0565b61076e565b005b34801561021c57600080fd5b506102256107ce565b60405161023291906126a2565b60405180910390f35b34801561024757600080fd5b50610262600480360381019061025d91906123bb565b6109f7565b6040516102739594939291906126d3565b60405180910390f35b34801561028857600080fd5b506102a3600480360381019061029e91906124b0565b610bd5565b005b3480156102b157600080fd5b506102cc60048036038101906102c791906123bb565b610bf5565b6040516102d99190612429565b60405180910390f35b3480156102ee57600080fd5b506103096004803603810190610304919061273b565b610c7b565b6040516103169190612768565b60405180910390f35b34801561032b57600080fd5b50610334610d32565b005b34801561034257600080fd5b5061034b610d46565b6040516103589190612429565b60405180910390f35b34801561036d57600080fd5b50610376610d70565b6040516103839190612363565b60405180910390f35b34801561039857600080fd5b506103b360048036038101906103ae91906127af565b610e02565b005b3480156103c157600080fd5b506103dc60048036038101906103d79190612924565b610e18565b005b3480156103ea57600080fd5b50610405600480360381019061040091906123bb565b610e7a565b6040516104129190612363565b60405180910390f35b34801561042757600080fd5b50610442600480360381019061043d91906129a7565b610ee2565b60405161044f91906122b8565b60405180910390f35b34801561046457600080fd5b5061047f600480360381019061047a919061273b565b610f76565b005b61049b60048036038101906104969190612a88565b610ff9565b005b60007f80ac58cd000000000000000000000000000000000000000000000000000000007bffffffffffffffffffffffffffffffffffffffffffffffffffffffff1916827bffffffffffffffffffffffffffffffffffffffffffffffffffffffff1916148061056857507f5b5e139f000000000000000000000000000000000000000000000000000000007bffffffffffffffffffffffffffffffffffffffffffffffffffffffff1916827bffffffffffffffffffffffffffffffffffffffffffffffffffffffff1916145b8061057857506105778261101b565b5b9050919050565b60606000805461058e90612b72565b80601f01602080910402602001604051908101604052809291908181526020018280546105ba90612b72565b80156106075780601f106105dc57610100808354040283529160200191610607565b820191906000526020600020905b8154815290600101906020018083116105ea57829003601f168201915b5050505050905090565b600061061c82611085565b6004600083815260200190815260200160002060009054906101000a900473ffffffffffffffffffffffffffffffffffffffff169050919050565b600061066282610bf5565b90508073ffffffffffffffffffffffffffffffffffffffff168373ffffffffffffffffffffffffffffffffffffffff16036106d2576040517f08c379a00000000000000000000000000000000000000000000000000000000081526004016106c990612c15565b60405180910390fd5b8073ffffffffffffffffffffffffffffffffffffffff166106f16110d0565b73ffffffffffffffffffffffffffffffffffffffff161480610720575061071f8161071a6110d0565b610ee2565b5b61075f576040517f08c379a000000000000000000000000000000000000000000000000000000000815260040161075690612ca7565b60405180910390fd5b61076983836110d8565b505050565b61077f6107796110d0565b82611191565b6107be576040517f08c379a00000000000000000000000000000000000000000000000000000000081526004016107b590612d39565b60405180910390fd5b6107c9838383611226565b505050565b60606007805480602002602001604051908101604052809291908181526020016000905b828210156109ee57838290600052602060002090600502016040518060a00160405290816000820154815260200160018201805461082f90612b72565b80601f016020809104026020016040519081016040528092919081815260200182805461085b90612b72565b80156108a85780601f1061087d576101008083540402835291602001916108a8565b820191906000526020600020905b81548152906001019060200180831161088b57829003601f168201915b505050505081526020016002820180546108c190612b72565b80601f01602080910402602001604051908101604052809291908181526020018280546108ed90612b72565b801561093a5780601f1061090f5761010080835404028352916020019161093a565b820191906000526020600020905b81548152906001019060200180831161091d57829003601f168201915b505050505081526020016003820154815260200160048201805461095d90612b72565b80601f016020809104026020016040519081016040528092919081815260200182805461098990612b72565b80156109d65780601f106109ab576101008083540402835291602001916109d6565b820191906000526020600020905b8154815290600101906020018083116109b957829003601f168201915b505050505081525050815260200190600101906107f2565b50505050905090565b60078181548110610a0757600080fd5b9060005260206000209060050201600091509050806000015490806001018054610a3090612b72565b80601f0160208091040260200160405190810160405280929190818152602001828054610a5c90612b72565b8015610aa95780601f10610a7e57610100808354040283529160200191610aa9565b820191906000526020600020905b815481529060010190602001808311610a8c57829003601f168201915b505050505090806002018054610abe90612b72565b80601f0160208091040260200160405190810160405280929190818152602001828054610aea90612b72565b8015610b375780601f10610b0c57610100808354040283529160200191610b37565b820191906000526020600020905b815481529060010190602001808311610b1a57829003601f168201915b505050505090806003015490806004018054610b5290612b72565b80601f0160208091040260200160405190810160405280929190818152602001828054610b7e90612b72565b8015610bcb5780601f10610ba057610100808354040283529160200191610bcb565b820191906000526020600020905b815481529060010190602001808311610bae57829003601f168201915b5050505050905085565b610bf083838360405180602001604052806000815250610e18565b505050565b600080610c018361151f565b9050600073ffffffffffffffffffffffffffffffffffffffff168173ffffffffffffffffffffffffffffffffffffffff1603610c72576040517f08c379a0000000000000000000000000000000000000000000000000000000008152600401610c6990612da5565b60405180910390fd5b80915050919050565b60008073ffffffffffffffffffffffffffffffffffffffff168273ffffffffffffffffffffffffffffffffffffffff1603610ceb576040517f08c379a0000000000000000000000000000000000000000000000000000000008152600401610ce290612e37565b60405180910390fd5b600360008373ffffffffffffffffffffffffffffffffffffffff1673ffffffffffffffffffffffffffffffffffffffff168152602001908152602001600020549050919050565b610d3a61155c565b610d4460006115da565b565b6000600660009054906101000a900473ffffffffffffffffffffffffffffffffffffffff16905090565b606060018054610d7f90612b72565b80601f0160208091040260200160405190810160405280929190818152602001828054610dab90612b72565b8015610df85780601f10610dcd57610100808354040283529160200191610df8565b820191906000526020600020905b815481529060010190602001808311610ddb57829003601f168201915b5050505050905090565b610e14610e0d6110d0565b83836116a0565b5050565b610e29610e236110d0565b83611191565b610e68576040517f08c379a0000000000000000000000000000000000000000000000000000000008152600401610e5f90612d39565b60405180910390fd5b610e748484848461180c565b50505050565b6060610e8582611085565b6000610e8f611868565b90506000815111610eaf5760405180602001604052806000815250610eda565b80610eb98461187f565b604051602001610eca929190612e93565b6040516020818303038152906040525b915050919050565b6000600560008473ffffffffffffffffffffffffffffffffffffffff1673ffffffffffffffffffffffffffffffffffffffff16815260200190815260200160002060008373ffffffffffffffffffffffffffffffffffffffff1673ffffffffffffffffffffffffffffffffffffffff16815260200190815260200160002060009054906101000a900460ff16905092915050565b610f7e61155c565b600073ffffffffffffffffffffffffffffffffffffffff168173ffffffffffffffffffffffffffffffffffffffff1603610fed576040517f08c379a0000000000000000000000000000000000000000000000000000000008152600401610fe490612f29565b60405180910390fd5b610ff6816115da565b50565b6000611005858561194d565b905061101481868686866119d3565b5050505050565b60007f01ffc9a7000000000000000000000000000000000000000000000000000000007bffffffffffffffffffffffffffffffffffffffffffffffffffffffff1916827bffffffffffffffffffffffffffffffffffffffffffffffffffffffff1916149050919050565b61108e81611b04565b6110cd576040517f08c379a00000000000000000000000000000000000000000000000000000000081526004016110c490612da5565b60405180910390fd5b50565b600033905090565b816004600083815260200190815260200160002060006101000a81548173ffffffffffffffffffffffffffffffffffffffff021916908373ffffffffffffffffffffffffffffffffffffffff160217905550808273ffffffffffffffffffffffffffffffffffffffff1661114b83610bf5565b73ffffffffffffffffffffffffffffffffffffffff167f8c5be1e5ebec7d5bd14f71427d1e84f3dd0314c0f7b2291e5b200ac8c7c3b92560405160405180910390a45050565b60008061119d83610bf5565b90508073ffffffffffffffffffffffffffffffffffffffff168473ffffffffffffffffffffffffffffffffffffffff1614806111df57506111de8185610ee2565b5b8061121d57508373ffffffffffffffffffffffffffffffffffffffff1661120584610611565b73ffffffffffffffffffffffffffffffffffffffff16145b91505092915050565b8273ffffffffffffffffffffffffffffffffffffffff1661124682610bf5565b73ffffffffffffffffffffffffffffffffffffffff161461129c576040517f08c379a000000000000000000000000000000000000000000000000000000000815260040161129390612fbb565b60405180910390fd5b600073ffffffffffffffffffffffffffffffffffffffff168273ffffffffffffffffffffffffffffffffffffffff160361130b576040517f08c379a00000000000000000000000000000000000000000000000000000000081526004016113029061304d565b60405180910390fd5b6113188383836001611b45565b8273ffffffffffffffffffffffffffffffffffffffff1661133882610bf5565b73ffffffffffffffffffffffffffffffffffffffff161461138e576040517f08c379a000000000000000000000000000000000000000000000000000000000815260040161138590612fbb565b60405180910390fd5b6004600082815260200190815260200160002060006101000a81549073ffffffffffffffffffffffffffffffffffffffff02191690556001600360008573ffffffffffffffffffffffffffffffffffffffff1673ffffffffffffffffffffffffffffffffffffffff168152602001908152602001600020600082825403925050819055506001600360008473ffffffffffffffffffffffffffffffffffffffff1673ffffffffffffffffffffffffffffffffffffffff16815260200190815260200160002060008282540192505081905550816002600083815260200190815260200160002060006101000a81548173ffffffffffffffffffffffffffffffffffffffff021916908373ffffffffffffffffffffffffffffffffffffffff160217905550808273ffffffffffffffffffffffffffffffffffffffff168473ffffffffffffffffffffffffffffffffffffffff167fddf252ad1be2c89b69c2b068fc378daa952ba7f163c4a11628f55a4df523b3ef60405160405180910390a461151a8383836001611c6b565b505050565b60006002600083815260200190815260200160002060009054906101000a900473ffffffffffffffffffffffffffffffffffffffff169050919050565b6115646110d0565b73ffffffffffffffffffffffffffffffffffffffff16611582610d46565b73ffffffffffffffffffffffffffffffffffffffff16146115d8576040517f08c379a00000000000000000000000000000000000000000000000000000000081526004016115cf906130b9565b60405180910390fd5b565b6000600660009054906101000a900473ffffffffffffffffffffffffffffffffffffffff16905081600660006101000a81548173ffffffffffffffffffffffffffffffffffffffff021916908373ffffffffffffffffffffffffffffffffffffffff1602179055508173ffffffffffffffffffffffffffffffffffffffff168173ffffffffffffffffffffffffffffffffffffffff167f8be0079c531659141344cd1fd0a4f28419497f9722a3daafe3b4186f6b6457e060405160405180910390a35050565b8173ffffffffffffffffffffffffffffffffffffffff168373ffffffffffffffffffffffffffffffffffffffff160361170e576040517f08c379a000000000000000000000000000000000000000000000000000000000815260040161170590613125565b60405180910390fd5b80600560008573ffffffffffffffffffffffffffffffffffffffff1673ffffffffffffffffffffffffffffffffffffffff16815260200190815260200160002060008473ffffffffffffffffffffffffffffffffffffffff1673ffffffffffffffffffffffffffffffffffffffff16815260200190815260200160002060006101000a81548160ff0219169083151502179055508173ffffffffffffffffffffffffffffffffffffffff168373ffffffffffffffffffffffffffffffffffffffff167f17307eab39ab6107e8899845ad3d59bd9653f200f220920489ca2b5937696c31836040516117ff91906122b8565b60405180910390a3505050565b611817848484611226565b61182384848484611c71565b611862576040517f08c379a0000000000000000000000000000000000000000000000000000000008152600401611859906131b7565b60405180910390fd5b50505050565b606060405180602001604052806000815250905090565b60606000600161188e84611df8565b01905060008167ffffffffffffffff8111156118ad576118ac6127f9565b5b6040519080825280601f01601f1916602001820160405280156118df5781602001600182028036833780820191505090505b509050600082602001820190505b600115611942578080600190039150507f3031323334353637383961626364656600000000000000000000000000000000600a86061a8153600a8581611936576119356131d7565b5b049450600085036118ed575b819350505050919050565b6000806040518060200160405280600081525090508084846040516020016119779392919061324d565b604051602081830303815290604052905060008160405160200161199b919061327e565b6040516020818303038152906040528051906020012060001c9050662386f26fc10000816119c99190613295565b9250505092915050565b60006040518060a001604052808781526020018681526020018581526020018481526020018381525090506007819080600181540180825580915050600190039060005260206000209060050201600090919091909150600082015181600001556020820151816001019081611a499190613472565b506040820151816002019081611a5f9190613472565b50606082015181600301556080820151816004019081611a7f9190613472565b505050611a8e33600854611f4b565b3373ffffffffffffffffffffffffffffffffffffffff167f11526b325e65db24c8395c8a0067dd4c4fad30bb234d814371d0ac1ca9baf1d88787878787604051611adc9594939291906126d3565b60405180910390a260086000815480929190611af790613573565b9190505550505050505050565b60008073ffffffffffffffffffffffffffffffffffffffff16611b268361151f565b73ffffffffffffffffffffffffffffffffffffffff1614159050919050565b6001811115611c6557600073ffffffffffffffffffffffffffffffffffffffff168473ffffffffffffffffffffffffffffffffffffffff1614611bd95780600360008673ffffffffffffffffffffffffffffffffffffffff1673ffffffffffffffffffffffffffffffffffffffff1681526020019081526020016000206000828254611bd191906135bb565b925050819055505b600073ffffffffffffffffffffffffffffffffffffffff168373ffffffffffffffffffffffffffffffffffffffff1614611c645780600360008573ffffffffffffffffffffffffffffffffffffffff1673ffffffffffffffffffffffffffffffffffffffff1681526020019081526020016000206000828254611c5c91906135ef565b925050819055505b5b50505050565b50505050565b6000611c928473ffffffffffffffffffffffffffffffffffffffff16611f69565b15611deb578373ffffffffffffffffffffffffffffffffffffffff1663150b7a02611cbb6110d0565b8786866040518563ffffffff1660e01b8152600401611cdd949392919061366d565b6020604051808303816000875af1925050508015611d1957506040513d601f19601f82011682018060405250810190611d1691906136ce565b60015b611d9b573d8060008114611d49576040519150601f19603f3d011682016040523d82523d6000602084013e611d4e565b606091505b506000815103611d93576040517f08c379a0000000000000000000000000000000000000000000000000000000008152600401611d8a906131b7565b60405180910390fd5b805181602001fd5b63150b7a0260e01b7bffffffffffffffffffffffffffffffffffffffffffffffffffffffff1916817bffffffffffffffffffffffffffffffffffffffffffffffffffffffff191614915050611df0565b600190505b949350505050565b600080600090507a184f03e93ff9f4daa797ed6e38ed64bf6a1f0100000000000000008310611e56577a184f03e93ff9f4daa797ed6e38ed64bf6a1f0100000000000000008381611e4c57611e4b6131d7565b5b0492506040810190505b6d04ee2d6d415b85acef81000000008310611e93576d04ee2d6d415b85acef81000000008381611e8957611e886131d7565b5b0492506020810190505b662386f26fc100008310611ec257662386f26fc100008381611eb857611eb76131d7565b5b0492506010810190505b6305f5e1008310611eeb576305f5e1008381611ee157611ee06131d7565b5b0492506008810190505b6127108310611f10576127108381611f0657611f056131d7565b5b0492506004810190505b60648310611f335760648381611f2957611f286131d7565b5b0492506002810190505b600a8310611f42576001810190505b80915050919050565b611f65828260405180602001604052806000815250611f8c565b5050565b6000808273ffffffffffffffffffffffffffffffffffffffff163b119050919050565b611f968383611fe7565b611fa36000848484611c71565b611fe2576040517f08c379a0000000000000000000000000000000000000000000000000000000008152600401611fd9906131b7565b60405180910390fd5b505050565b600073ffffffffffffffffffffffffffffffffffffffff168273ffffffffffffffffffffffffffffffffffffffff1603612056576040517f08c379a000000000000000000000000000000000000000000000000000000000815260040161204d90613747565b60405180910390fd5b61205f81611b04565b1561209f576040517f08c379a0000000000000000000000000000000000000000000000000000000008152600401612096906137b3565b60405180910390fd5b6120ad600083836001611b45565b6120b681611b04565b156120f6576040517f08c379a00000000000000000000000000000000000000000000000000000000081526004016120ed906137b3565b60405180910390fd5b6001600360008473ffffffffffffffffffffffffffffffffffffffff1673ffffffffffffffffffffffffffffffffffffffff16815260200190815260200160002060008282540192505081905550816002600083815260200190815260200160002060006101000a81548173ffffffffffffffffffffffffffffffffffffffff021916908373ffffffffffffffffffffffffffffffffffffffff160217905550808273ffffffffffffffffffffffffffffffffffffffff16600073ffffffffffffffffffffffffffffffffffffffff167fddf252ad1be2c89b69c2b068fc378daa952ba7f163c4a11628f55a4df523b3ef60405160405180910390a4612200600083836001611c6b565b5050565b6000604051905090565b600080fd5b600080fd5b60007fffffffff0000000000000000000000000000000000000000000000000000000082169050919050565b61224d81612218565b811461225857600080fd5b50565b60008135905061226a81612244565b92915050565b6000602082840312156122865761228561220e565b5b60006122948482850161225b565b91505092915050565b60008115159050919050565b6122b28161229d565b82525050565b60006020820190506122cd60008301846122a9565b92915050565b600081519050919050565b600082825260208201905092915050565b60005b8381101561230d5780820151818401526020810190506122f2565b60008484015250505050565b6000601f19601f8301169050919050565b6000612335826122d3565b61233f81856122de565b935061234f8185602086016122ef565b61235881612319565b840191505092915050565b6000602082019050818103600083015261237d818461232a565b905092915050565b6000819050919050565b61239881612385565b81146123a357600080fd5b50565b6000813590506123b58161238f565b92915050565b6000602082840312156123d1576123d061220e565b5b60006123df848285016123a6565b91505092915050565b600073ffffffffffffffffffffffffffffffffffffffff82169050919050565b6000612413826123e8565b9050919050565b61242381612408565b82525050565b600060208201905061243e600083018461241a565b92915050565b61244d81612408565b811461245857600080fd5b50565b60008135905061246a81612444565b92915050565b600080604083850312156124875761248661220e565b5b60006124958582860161245b565b92505060206124a6858286016123a6565b9150509250929050565b6000806000606084860312156124c9576124c861220e565b5b60006124d78682870161245b565b93505060206124e88682870161245b565b92505060406124f9868287016123a6565b9150509250925092565b600081519050919050565b600082825260208201905092915050565b6000819050602082019050919050565b61253881612385565b82525050565b600082825260208201905092915050565b600061255a826122d3565b612564818561253e565b93506125748185602086016122ef565b61257d81612319565b840191505092915050565b600060a0830160008301516125a0600086018261252f565b50602083015184820360208601526125b8828261254f565b915050604083015184820360408601526125d2828261254f565b91505060608301516125e7606086018261252f565b50608083015184820360808601526125ff828261254f565b9150508091505092915050565b60006126188383612588565b905092915050565b6000602082019050919050565b600061263882612503565b612642818561250e565b9350836020820285016126548561251f565b8060005b858110156126905784840389528151612671858261260c565b945061267c83612620565b925060208a01995050600181019050612658565b50829750879550505050505092915050565b600060208201905081810360008301526126bc818461262d565b905092915050565b6126cd81612385565b82525050565b600060a0820190506126e860008301886126c4565b81810360208301526126fa818761232a565b9050818103604083015261270e818661232a565b905061271d60608301856126c4565b818103608083015261272f818461232a565b90509695505050505050565b6000602082840312156127515761275061220e565b5b600061275f8482850161245b565b91505092915050565b600060208201905061277d60008301846126c4565b92915050565b61278c8161229d565b811461279757600080fd5b50565b6000813590506127a981612783565b92915050565b600080604083850312156127c6576127c561220e565b5b60006127d48582860161245b565b92505060206127e58582860161279a565b9150509250929050565b600080fd5b600080fd5b7f4e487b7100000000000000000000000000000000000000000000000000000000600052604160045260246000fd5b61283182612319565b810181811067ffffffffffffffff821117156128505761284f6127f9565b5b80604052505050565b6000612863612204565b905061286f8282612828565b919050565b600067ffffffffffffffff82111561288f5761288e6127f9565b5b61289882612319565b9050602081019050919050565b82818337600083830152505050565b60006128c76128c284612874565b612859565b9050828152602081018484840111156128e3576128e26127f4565b5b6128ee8482856128a5565b509392505050565b600082601f83011261290b5761290a6127ef565b5b813561291b8482602086016128b4565b91505092915050565b6000806000806080858703121561293e5761293d61220e565b5b600061294c8782880161245b565b945050602061295d8782880161245b565b935050604061296e878288016123a6565b925050606085013567ffffffffffffffff81111561298f5761298e612213565b5b61299b878288016128f6565b91505092959194509250565b600080604083850312156129be576129bd61220e565b5b60006129cc8582860161245b565b92505060206129dd8582860161245b565b9150509250929050565b600067ffffffffffffffff821115612a0257612a016127f9565b5b612a0b82612319565b9050602081019050919050565b6000612a2b612a26846129e7565b612859565b905082815260208101848484011115612a4757612a466127f4565b5b612a528482856128a5565b509392505050565b600082601f830112612a6f57612a6e6127ef565b5b8135612a7f848260208601612a18565b91505092915050565b60008060008060808587031215612aa257612aa161220e565b5b600085013567ffffffffffffffff811115612ac057612abf612213565b5b612acc87828801612a5a565b945050602085013567ffffffffffffffff811115612aed57612aec612213565b5b612af987828801612a5a565b9350506040612b0a878288016123a6565b925050606085013567ffffffffffffffff811115612b2b57612b2a612213565b5b612b3787828801612a5a565b91505092959194509250565b7f4e487b7100000000000000000000000000000000000000000000000000000000600052602260045260246000fd5b60006002820490506001821680612b8a57607f821691505b602082108103612b9d57612b9c612b43565b5b50919050565b7f4552433732313a20617070726f76616c20746f2063757272656e74206f776e6560008201527f7200000000000000000000000000000000000000000000000000000000000000602082015250565b6000612bff6021836122de565b9150612c0a82612ba3565b604082019050919050565b60006020820190508181036000830152612c2e81612bf2565b9050919050565b7f4552433732313a20617070726f76652063616c6c6572206973206e6f7420746f60008201527f6b656e206f776e6572206f7220617070726f76656420666f7220616c6c000000602082015250565b6000612c91603d836122de565b9150612c9c82612c35565b604082019050919050565b60006020820190508181036000830152612cc081612c84565b9050919050565b7f4552433732313a2063616c6c6572206973206e6f7420746f6b656e206f776e6560008201527f72206f7220617070726f76656400000000000000000000000000000000000000602082015250565b6000612d23602d836122de565b9150612d2e82612cc7565b604082019050919050565b60006020820190508181036000830152612d5281612d16565b9050919050565b7f4552433732313a20696e76616c696420746f6b656e2049440000000000000000600082015250565b6000612d8f6018836122de565b9150612d9a82612d59565b602082019050919050565b60006020820190508181036000830152612dbe81612d82565b9050919050565b7f4552433732313a2061646472657373207a65726f206973206e6f74206120766160008201527f6c6964206f776e65720000000000000000000000000000000000000000000000602082015250565b6000612e216029836122de565b9150612e2c82612dc5565b604082019050919050565b60006020820190508181036000830152612e5081612e14565b9050919050565b600081905092915050565b6000612e6d826122d3565b612e778185612e57565b9350612e878185602086016122ef565b80840191505092915050565b6000612e9f8285612e62565b9150612eab8284612e62565b91508190509392505050565b7f4f776e61626c653a206e6577206f776e657220697320746865207a65726f206160008201527f6464726573730000000000000000000000000000000000000000000000000000602082015250565b6000612f136026836122de565b9150612f1e82612eb7565b604082019050919050565b60006020820190508181036000830152612f4281612f06565b9050919050565b7f4552433732313a207472616e736665722066726f6d20696e636f72726563742060008201527f6f776e6572000000000000000000000000000000000000000000000000000000602082015250565b6000612fa56025836122de565b9150612fb082612f49565b604082019050919050565b60006020820190508181036000830152612fd481612f98565b9050919050565b7f4552433732313a207472616e7366657220746f20746865207a65726f2061646460008201527f7265737300000000000000000000000000000000000000000000000000000000602082015250565b60006130376024836122de565b915061304282612fdb565b604082019050919050565b600060208201905081810360008301526130668161302a565b9050919050565b7f4f776e61626c653a2063616c6c6572206973206e6f7420746865206f776e6572600082015250565b60006130a36020836122de565b91506130ae8261306d565b602082019050919050565b600060208201905081810360008301526130d281613096565b9050919050565b7f4552433732313a20617070726f766520746f2063616c6c657200000000000000600082015250565b600061310f6019836122de565b915061311a826130d9565b602082019050919050565b6000602082019050818103600083015261313e81613102565b9050919050565b7f4552433732313a207472616e7366657220746f206e6f6e20455243373231526560008201527f63656976657220696d706c656d656e7465720000000000000000000000000000602082015250565b60006131a16032836122de565b91506131ac82613145565b604082019050919050565b600060208201905081810360008301526131d081613194565b9050919050565b7f4e487b7100000000000000000000000000000000000000000000000000000000600052601260045260246000fd5b600081519050919050565b600081905092915050565b600061322782613206565b6132318185613211565b93506132418185602086016122ef565b80840191505092915050565b6000613259828661321c565b9150613265828561321c565b9150613271828461321c565b9150819050949350505050565b600061328a8284612e62565b915081905092915050565b60006132a082612385565b91506132ab83612385565b9250826132bb576132ba6131d7565b5b828206905092915050565b60008190508160005260206000209050919050565b60006020601f8301049050919050565b600082821b905092915050565b6000600883026133287fffffffffffffffffffffffffffffffffffffffffffffffffffffffffffffffff826132eb565b61333286836132eb565b95508019841693508086168417925050509392505050565b6000819050919050565b600061336f61336a61336584612385565b61334a565b612385565b9050919050565b6000819050919050565b61338983613354565b61339d61339582613376565b8484546132f8565b825550505050565b600090565b6133b26133a5565b6133bd818484613380565b505050565b5b818110156133e1576133d66000826133aa565b6001810190506133c3565b5050565b601f821115613426576133f7816132c6565b613400846132db565b8101602085101561340f578190505b61342361341b856132db565b8301826133c2565b50505b505050565b600082821c905092915050565b60006134496000198460080261342b565b1980831691505092915050565b60006134628383613438565b9150826002028217905092915050565b61347b826122d3565b67ffffffffffffffff811115613494576134936127f9565b5b61349e8254612b72565b6134a98282856133e5565b600060209050601f8311600181146134dc57600084156134ca578287015190505b6134d48582613456565b86555061353c565b601f1984166134ea866132c6565b60005b82811015613512578489015182556001820191506020850194506020810190506134ed565b8683101561352f578489015161352b601f891682613438565b8355505b6001600288020188555050505b505050505050565b7f4e487b7100000000000000000000000000000000000000000000000000000000600052601160045260246000fd5b600061357e82612385565b91507fffffffffffffffffffffffffffffffffffffffffffffffffffffffffffffffff82036135b0576135af613544565b5b600182019050919050565b60006135c682612385565b91506135d183612385565b92508282039050818111156135e9576135e8613544565b5b92915050565b60006135fa82612385565b915061360583612385565b925082820190508082111561361d5761361c613544565b5b92915050565b600082825260208201905092915050565b600061363f82613206565b6136498185613623565b93506136598185602086016122ef565b61366281612319565b840191505092915050565b6000608082019050613682600083018761241a565b61368f602083018661241a565b61369c60408301856126c4565b81810360608301526136ae8184613634565b905095945050505050565b6000815190506136c881612244565b92915050565b6000602082840312156136e4576136e361220e565b5b60006136f2848285016136b9565b91505092915050565b7f4552433732313a206d696e7420746f20746865207a65726f2061646472657373600082015250565b60006137316020836122de565b915061373c826136fb565b602082019050919050565b6000602082019050818103600083015261376081613724565b9050919050565b7f4552433732313a20746f6b656e20616c7265616479206d696e74656400000000600082015250565b600061379d601c836122de565b91506137a882613767565b602082019050919050565b600060208201905081810360008301526137cc81613790565b905091905056fea264697066735822122096c5047b1f10674e38bb2fd31803c8dbc922f408f21dc2919d228f0f6177f83764736f6c63430008110033",
  "linkReferences": {},
  "deployedLinkReferences": {}
}