{
  "_format": "hh-sol-artifact-1",
  "contractName": "KStoken",
  "sourceName": "contracts/KStokens.sol",
  "abi": [
    {
      "inputs": [],
      "stateMutability": "nonpayable",
      "type": "constructor"
    },
    {
      "anonymous": false,
      "inputs": [
        {
          "indexed": true,
          "internalType": "address",
          "name": "owner",
          "type": "address"
        },
        {
          "indexed": true,
          "internalType": "address",
          "name": "spender",
          "type": "address"
        },
        {
          "indexed": false,
          "internalType": "uint256",
          "name": "value",
          "type": "uint256"
        }
      ],
      "name": "Approval",
      "type": "event"
    },
    {
      "anonymous": false,
      "inputs": [
        {
          "indexed": true,
          "internalType": "address",
          "name": "from",
          "type": "address"
        },
        {
          "indexed": true,
          "internalType": "address",
          "name": "to",
          "type": "address"
        },
        {
          "indexed": false,
          "internalType": "uint256",
          "name": "value",
          "type": "uint256"
        }
      ],
      "name": "Transfer",
      "type": "event"
    },
    {
      "inputs": [],
      "name": "Owner",
      "outputs": [
        {
          "internalType": "address",
          "name": "",
          "type": "address"
        }
      ],
      "stateMutability": "view",
      "type": "function"
    },
    {
      "inputs": [
        {
          "internalType": "address",
          "name": "owner",
          "type": "address"
        },
        {
          "internalType": "address",
          "name": "spender",
          "type": "address"
        }
      ],
      "name": "allowance",
      "outputs": [
        {
          "internalType": "uint256",
          "name": "",
          "type": "uint256"
        }
      ],
      "stateMutability": "view",
      "type": "function"
    },
    {
      "inputs": [
        {
          "internalType": "address",
          "name": "spender",
          "type": "address"
        },
        {
          "internalType": "uint256",
          "name": "amount",
          "type": "uint256"
        }
      ],
      "name": "approve",
      "outputs": [
        {
          "internalType": "bool",
          "name": "",
          "type": "bool"
        }
      ],
      "stateMutability": "nonpayable",
      "type": "function"
    },
    {
      "inputs": [
        {
          "internalType": "uint256",
          "name": "_questionID",
          "type": "uint256"
        },
        {
          "internalType": "address",
          "name": "_userToBeRewarded",
          "type": "address"
        }
      ],
      "name": "awardBounty",
      "outputs": [],
      "stateMutability": "nonpayable",
      "type": "function"
    },
    {
      "inputs": [
        {
          "internalType": "address",
          "name": "account",
          "type": "address"
        }
      ],
      "name": "balanceOf",
      "outputs": [
        {
          "internalType": "uint256",
          "name": "",
          "type": "uint256"
        }
      ],
      "stateMutability": "view",
      "type": "function"
    },
    {
      "inputs": [
        {
          "internalType": "uint256",
          "name": "_questionID",
          "type": "uint256"
        }
      ],
      "name": "bountyLeftOnQuestion",
      "outputs": [
        {
          "internalType": "uint256",
          "name": "",
          "type": "uint256"
        }
      ],
      "stateMutability": "view",
      "type": "function"
    },
    {
      "inputs": [
        {
          "internalType": "uint256",
          "name": "amount",
          "type": "uint256"
        }
      ],
      "name": "burn",
      "outputs": [],
      "stateMutability": "nonpayable",
      "type": "function"
    },
    {
      "inputs": [],
      "name": "claim",
      "outputs": [],
      "stateMutability": "nonpayable",
      "type": "function"
    },
    {
      "inputs": [],
      "name": "decimals",
      "outputs": [
        {
          "internalType": "uint8",
          "name": "",
          "type": "uint8"
        }
      ],
      "stateMutability": "view",
      "type": "function"
    },
    {
      "inputs": [
        {
          "internalType": "address",
          "name": "spender",
          "type": "address"
        },
        {
          "internalType": "uint256",
          "name": "subtractedValue",
          "type": "uint256"
        }
      ],
      "name": "decreaseAllowance",
      "outputs": [
        {
          "internalType": "bool",
          "name": "",
          "type": "bool"
        }
      ],
      "stateMutability": "nonpayable",
      "type": "function"
    },
    {
      "inputs": [
        {
          "internalType": "uint256",
          "name": "_questionID",
          "type": "uint256"
        },
        {
          "internalType": "uint256",
          "name": "bountyAmount",
          "type": "uint256"
        }
      ],
      "name": "holdBounty",
      "outputs": [],
      "stateMutability": "nonpayable",
      "type": "function"
    },
    {
      "inputs": [
        {
          "internalType": "uint256",
          "name": "",
          "type": "uint256"
        }
      ],
      "name": "holdings",
      "outputs": [
        {
          "internalType": "uint256",
          "name": "",
          "type": "uint256"
        }
      ],
      "stateMutability": "view",
      "type": "function"
    },
    {
      "inputs": [
        {
          "internalType": "address",
          "name": "spender",
          "type": "address"
        },
        {
          "internalType": "uint256",
          "name": "addedValue",
          "type": "uint256"
        }
      ],
      "name": "increaseAllowance",
      "outputs": [
        {
          "internalType": "bool",
          "name": "",
          "type": "bool"
        }
      ],
      "stateMutability": "nonpayable",
      "type": "function"
    },
    {
      "inputs": [
        {
          "internalType": "address",
          "name": "to",
          "type": "address"
        },
        {
          "internalType": "uint256",
          "name": "amount",
          "type": "uint256"
        }
      ],
      "name": "mint",
      "outputs": [],
      "stateMutability": "nonpayable",
      "type": "function"
    },
    {
      "inputs": [],
      "name": "name",
      "outputs": [
        {
          "internalType": "string",
          "name": "",
          "type": "string"
        }
      ],
      "stateMutability": "view",
      "type": "function"
    },
    {
      "inputs": [
        {
          "internalType": "uint256",
          "name": "amount",
          "type": "uint256"
        }
      ],
      "name": "stake",
      "outputs": [],
      "stateMutability": "nonpayable",
      "type": "function"
    },
    {
      "inputs": [
        {
          "internalType": "address",
          "name": "",
          "type": "address"
        }
      ],
      "name": "staked",
      "outputs": [
        {
          "internalType": "uint256",
          "name": "",
          "type": "uint256"
        }
      ],
      "stateMutability": "view",
      "type": "function"
    },
    {
      "inputs": [],
      "name": "symbol",
      "outputs": [
        {
          "internalType": "string",
          "name": "",
          "type": "string"
        }
      ],
      "stateMutability": "view",
      "type": "function"
    },
    {
      "inputs": [],
      "name": "totalSupply",
      "outputs": [
        {
          "internalType": "uint256",
          "name": "",
          "type": "uint256"
        }
      ],
      "stateMutability": "view",
      "type": "function"
    },
    {
      "inputs": [
        {
          "internalType": "address",
          "name": "to",
          "type": "address"
        },
        {
          "internalType": "uint256",
          "name": "amount",
          "type": "uint256"
        }
      ],
      "name": "transfer",
      "outputs": [
        {
          "internalType": "bool",
          "name": "",
          "type": "bool"
        }
      ],
      "stateMutability": "nonpayable",
      "type": "function"
    },
    {
      "inputs": [
        {
          "internalType": "address",
          "name": "from",
          "type": "address"
        },
        {
          "internalType": "address",
          "name": "to",
          "type": "address"
        },
        {
          "internalType": "uint256",
          "name": "amount",
          "type": "uint256"
        }
      ],
      "name": "transferFrom",
      "outputs": [
        {
          "internalType": "bool",
          "name": "",
          "type": "bool"
        }
      ],
      "stateMutability": "nonpayable",
      "type": "function"
    },
    {
      "inputs": [
        {
          "internalType": "uint256",
          "name": "amount",
          "type": "uint256"
        }
      ],
      "name": "unstake",
      "outputs": [],
      "stateMutability": "nonpayable",
      "type": "function"
    }
  ],
  "bytecode": "0x60806040523480156200001157600080fd5b506040518060400160405280601781526020017f4b6e6f776c65646765205377617020546f6b656e2054310000000000000000008152506040518060400160405280600b81526020017f4b532d544f4b454e20543100000000000000000000000000000000000000000081525081600390816200008f919062000365565b508060049081620000a1919062000365565b50505033600560006101000a81548173ffffffffffffffffffffffffffffffffffffffff021916908373ffffffffffffffffffffffffffffffffffffffff1602179055506200044c565b600081519050919050565b7f4e487b7100000000000000000000000000000000000000000000000000000000600052604160045260246000fd5b7f4e487b7100000000000000000000000000000000000000000000000000000000600052602260045260246000fd5b600060028204905060018216806200016d57607f821691505b60208210810362000183576200018262000125565b5b50919050565b60008190508160005260206000209050919050565b60006020601f8301049050919050565b600082821b905092915050565b600060088302620001ed7fffffffffffffffffffffffffffffffffffffffffffffffffffffffffffffffff82620001ae565b620001f98683620001ae565b95508019841693508086168417925050509392505050565b6000819050919050565b6000819050919050565b600062000246620002406200023a8462000211565b6200021b565b62000211565b9050919050565b6000819050919050565b620002628362000225565b6200027a62000271826200024d565b848454620001bb565b825550505050565b600090565b6200029162000282565b6200029e81848462000257565b505050565b5b81811015620002c657620002ba60008262000287565b600181019050620002a4565b5050565b601f8211156200031557620002df8162000189565b620002ea846200019e565b81016020851015620002fa578190505b6200031262000309856200019e565b830182620002a3565b50505b505050565b600082821c905092915050565b60006200033a600019846008026200031a565b1980831691505092915050565b600062000355838362000327565b9150826002028217905092915050565b6200037082620000eb565b67ffffffffffffffff8111156200038c576200038b620000f6565b5b62000398825462000154565b620003a5828285620002ca565b600060209050601f831160018114620003dd5760008415620003c8578287015190505b620003d4858262000347565b86555062000444565b601f198416620003ed8662000189565b60005b828110156200041757848901518255600182019150602085019450602081019050620003f0565b8683101562000437578489015162000433601f89168262000327565b8355505b6001600288020188555050505b505050505050565b612258806200045c6000396000f3fe608060405234801561001057600080fd5b50600436106101425760003560e01c806370a08231116100b8578063a457c2d71161007c578063a457c2d714610375578063a694fc3a146103a5578063a9059cbb146103c1578063af503309146103f1578063b4a99a4e14610421578063dd62ed3e1461043f57610142565b806370a08231146102ab57806392adcdcf146102db57806395d89b411461030b57806396a2e7901461032957806398807d841461034557610142565b80632e17de781161010a5780632e17de78146101ff578063313ce5671461021b578063395093511461023957806340c10f191461026957806342966c68146102855780634e71d92d146102a157610142565b806306fdde0314610147578063095ea7b3146101655780630fb844b51461019557806318160ddd146101b157806323b872dd146101cf575b600080fd5b61014f61046f565b60405161015c91906115dc565b60405180910390f35b61017f600480360381019061017a9190611697565b610501565b60405161018c91906116f2565b60405180910390f35b6101af60048036038101906101aa919061170d565b610524565b005b6101b961055f565b6040516101c6919061175c565b60405180910390f35b6101e960048036038101906101e49190611777565b610569565b6040516101f691906116f2565b60405180910390f35b610219600480360381019061021491906117ca565b610598565b005b6102236106c9565b6040516102309190611813565b60405180910390f35b610253600480360381019061024e9190611697565b6106ce565b60405161026091906116f2565b60405180910390f35b610283600480360381019061027e9190611697565b610705565b005b61029f600480360381019061029a91906117ca565b610726565b005b6102a9610733565b005b6102c560048036038101906102c0919061182e565b6108b4565b6040516102d2919061175c565b60405180910390f35b6102f560048036038101906102f091906117ca565b6108fc565b604051610302919061175c565b60405180910390f35b610313610919565b60405161032091906115dc565b60405180910390f35b610343600480360381019061033e919061185b565b6109ab565b005b61035f600480360381019061035a919061182e565b610a33565b60405161036c919061175c565b60405180910390f35b61038f600480360381019061038a9190611697565b610a4b565b60405161039c91906116f2565b60405180910390f35b6103bf60048036038101906103ba91906117ca565b610ac2565b005b6103db60048036038101906103d69190611697565b610c49565b6040516103e891906116f2565b60405180910390f35b61040b600480360381019061040691906117ca565b610c6c565b604051610418919061175c565b60405180910390f35b610429610c84565b60405161043691906118aa565b60405180910390f35b610459600480360381019061045491906118c5565b610caa565b604051610466919061175c565b60405180910390f35b60606003805461047e90611934565b80601f01602080910402602001604051908101604052809291908181526020018280546104aa90611934565b80156104f75780601f106104cc576101008083540402835291602001916104f7565b820191906000526020600020905b8154815290600101906020018083116104da57829003601f168201915b5050505050905090565b60008061050c610d31565b9050610519818585610d39565b600191505092915050565b61054230826007600086815260200190815260200160002054610f02565b600060076000848152602001908152602001600020819055505050565b6000600254905090565b600080610574610d31565b9050610581858285611181565b61058c858585610f02565b60019150509392505050565b600081116105db576040517f08c379a00000000000000000000000000000000000000000000000000000000081526004016105d2906119b1565b60405180910390fd5b80600660003373ffffffffffffffffffffffffffffffffffffffff1673ffffffffffffffffffffffffffffffffffffffff16815260200190815260200160002054101561065d576040517f08c379a000000000000000000000000000000000000000000000000000000000815260040161065490611a1d565b60405180910390fd5b610665610733565b80600660003373ffffffffffffffffffffffffffffffffffffffff1673ffffffffffffffffffffffffffffffffffffffff16815260200190815260200160002060008282546106b49190611a6c565b925050819055506106c6303383610f02565b50565b600090565b6000806106d9610d31565b90506106fa8185856106eb8589610caa565b6106f59190611aa0565b610d39565b600191505092915050565b61072282670de0b6b3a76400008361071d9190611ad4565b61120d565b5050565b610730338261136c565b50565b6000600660003373ffffffffffffffffffffffffffffffffffffffff1673ffffffffffffffffffffffffffffffffffffffff16815260200190815260200160002054116107b5576040517f08c379a00000000000000000000000000000000000000000000000000000000081526004016107ac90611b62565b60405180910390fd5b6000600860003373ffffffffffffffffffffffffffffffffffffffff1673ffffffffffffffffffffffffffffffffffffffff16815260200190815260200160002054426108029190611a6c565b905060006301e1432082600660003373ffffffffffffffffffffffffffffffffffffffff1673ffffffffffffffffffffffffffffffffffffffff168152602001908152602001600020546108569190611ad4565b6108609190611bb1565b905061086c338261120d565b42600860003373ffffffffffffffffffffffffffffffffffffffff1673ffffffffffffffffffffffffffffffffffffffff168152602001908152602001600020819055505050565b60008060008373ffffffffffffffffffffffffffffffffffffffff1673ffffffffffffffffffffffffffffffffffffffff168152602001908152602001600020549050919050565b600060076000838152602001908152602001600020549050919050565b60606004805461092890611934565b80601f016020809104026020016040519081016040528092919081815260200182805461095490611934565b80156109a15780601f10610976576101008083540402835291602001916109a1565b820191906000526020600020905b81548152906001019060200180831161098457829003601f168201915b5050505050905090565b670de0b6b3a7640000816109bf9190611ad4565b9050806109cb336108b4565b1015610a0c576040517f08c379a0000000000000000000000000000000000000000000000000000000008152600401610a0390611c2e565b60405180910390fd5b610a17333083610f02565b8060076000848152602001908152602001600020819055505050565b60066020528060005260406000206000915090505481565b600080610a56610d31565b90506000610a648286610caa565b905083811015610aa9576040517f08c379a0000000000000000000000000000000000000000000000000000000008152600401610aa090611cc0565b60405180910390fd5b610ab68286868403610d39565b60019250505092915050565b60008111610b05576040517f08c379a0000000000000000000000000000000000000000000000000000000008152600401610afc906119b1565b60405180910390fd5b80610b0f336108b4565b1015610b50576040517f08c379a0000000000000000000000000000000000000000000000000000000008152600401610b4790611d2c565b60405180910390fd5b610b5b333083610f02565b6000600660003373ffffffffffffffffffffffffffffffffffffffff1673ffffffffffffffffffffffffffffffffffffffff168152602001908152602001600020541115610bac57610bab610733565b5b42600860003373ffffffffffffffffffffffffffffffffffffffff1673ffffffffffffffffffffffffffffffffffffffff1681526020019081526020016000208190555080600660003373ffffffffffffffffffffffffffffffffffffffff1673ffffffffffffffffffffffffffffffffffffffff1681526020019081526020016000206000828254610c3f9190611aa0565b9250508190555050565b600080610c54610d31565b9050610c61818585610f02565b600191505092915050565b60076020528060005260406000206000915090505481565b600560009054906101000a900473ffffffffffffffffffffffffffffffffffffffff1681565b6000600160008473ffffffffffffffffffffffffffffffffffffffff1673ffffffffffffffffffffffffffffffffffffffff16815260200190815260200160002060008373ffffffffffffffffffffffffffffffffffffffff1673ffffffffffffffffffffffffffffffffffffffff16815260200190815260200160002054905092915050565b600033905090565b600073ffffffffffffffffffffffffffffffffffffffff168373ffffffffffffffffffffffffffffffffffffffff1603610da8576040517f08c379a0000000000000000000000000000000000000000000000000000000008152600401610d9f90611dbe565b60405180910390fd5b600073ffffffffffffffffffffffffffffffffffffffff168273ffffffffffffffffffffffffffffffffffffffff1603610e17576040517f08c379a0000000000000000000000000000000000000000000000000000000008152600401610e0e90611e50565b60405180910390fd5b80600160008573ffffffffffffffffffffffffffffffffffffffff1673ffffffffffffffffffffffffffffffffffffffff16815260200190815260200160002060008473ffffffffffffffffffffffffffffffffffffffff1673ffffffffffffffffffffffffffffffffffffffff168152602001908152602001600020819055508173ffffffffffffffffffffffffffffffffffffffff168373ffffffffffffffffffffffffffffffffffffffff167f8c5be1e5ebec7d5bd14f71427d1e84f3dd0314c0f7b2291e5b200ac8c7c3b92583604051610ef5919061175c565b60405180910390a3505050565b600073ffffffffffffffffffffffffffffffffffffffff168373ffffffffffffffffffffffffffffffffffffffff1603610f71576040517f08c379a0000000000000000000000000000000000000000000000000000000008152600401610f6890611ee2565b60405180910390fd5b600073ffffffffffffffffffffffffffffffffffffffff168273ffffffffffffffffffffffffffffffffffffffff1603610fe0576040517f08c379a0000000000000000000000000000000000000000000000000000000008152600401610fd790611f74565b60405180910390fd5b610feb838383611542565b60008060008573ffffffffffffffffffffffffffffffffffffffff1673ffffffffffffffffffffffffffffffffffffffff16815260200190815260200160002054905081811015611071576040517f08c379a000000000000000000000000000000000000000000000000000000000815260040161106890612006565b60405180910390fd5b8181036000808673ffffffffffffffffffffffffffffffffffffffff1673ffffffffffffffffffffffffffffffffffffffff16815260200190815260200160002081905550816000808573ffffffffffffffffffffffffffffffffffffffff1673ffffffffffffffffffffffffffffffffffffffff16815260200190815260200160002060008282546111049190611aa0565b925050819055508273ffffffffffffffffffffffffffffffffffffffff168473ffffffffffffffffffffffffffffffffffffffff167fddf252ad1be2c89b69c2b068fc378daa952ba7f163c4a11628f55a4df523b3ef84604051611168919061175c565b60405180910390a361117b848484611547565b50505050565b600061118d8484610caa565b90507fffffffffffffffffffffffffffffffffffffffffffffffffffffffffffffffff811461120757818110156111f9576040517f08c379a00000000000000000000000000000000000000000000000000000000081526004016111f090612072565b60405180910390fd5b6112068484848403610d39565b5b50505050565b600073ffffffffffffffffffffffffffffffffffffffff168273ffffffffffffffffffffffffffffffffffffffff160361127c576040517f08c379a0000000000000000000000000000000000000000000000000000000008152600401611273906120de565b60405180910390fd5b61128860008383611542565b806002600082825461129a9190611aa0565b92505081905550806000808473ffffffffffffffffffffffffffffffffffffffff1673ffffffffffffffffffffffffffffffffffffffff16815260200190815260200160002060008282546112ef9190611aa0565b925050819055508173ffffffffffffffffffffffffffffffffffffffff16600073ffffffffffffffffffffffffffffffffffffffff167fddf252ad1be2c89b69c2b068fc378daa952ba7f163c4a11628f55a4df523b3ef83604051611354919061175c565b60405180910390a361136860008383611547565b5050565b600073ffffffffffffffffffffffffffffffffffffffff168273ffffffffffffffffffffffffffffffffffffffff16036113db576040517f08c379a00000000000000000000000000000000000000000000000000000000081526004016113d290612170565b60405180910390fd5b6113e782600083611542565b60008060008473ffffffffffffffffffffffffffffffffffffffff1673ffffffffffffffffffffffffffffffffffffffff1681526020019081526020016000205490508181101561146d576040517f08c379a000000000000000000000000000000000000000000000000000000000815260040161146490612202565b60405180910390fd5b8181036000808573ffffffffffffffffffffffffffffffffffffffff1673ffffffffffffffffffffffffffffffffffffffff1681526020019081526020016000208190555081600260008282546114c49190611a6c565b92505081905550600073ffffffffffffffffffffffffffffffffffffffff168373ffffffffffffffffffffffffffffffffffffffff167fddf252ad1be2c89b69c2b068fc378daa952ba7f163c4a11628f55a4df523b3ef84604051611529919061175c565b60405180910390a361153d83600084611547565b505050565b505050565b505050565b600081519050919050565b600082825260208201905092915050565b60005b8381101561158657808201518184015260208101905061156b565b60008484015250505050565b6000601f19601f8301169050919050565b60006115ae8261154c565b6115b88185611557565b93506115c8818560208601611568565b6115d181611592565b840191505092915050565b600060208201905081810360008301526115f681846115a3565b905092915050565b600080fd5b600073ffffffffffffffffffffffffffffffffffffffff82169050919050565b600061162e82611603565b9050919050565b61163e81611623565b811461164957600080fd5b50565b60008135905061165b81611635565b92915050565b6000819050919050565b61167481611661565b811461167f57600080fd5b50565b6000813590506116918161166b565b92915050565b600080604083850312156116ae576116ad6115fe565b5b60006116bc8582860161164c565b92505060206116cd85828601611682565b9150509250929050565b60008115159050919050565b6116ec816116d7565b82525050565b600060208201905061170760008301846116e3565b92915050565b60008060408385031215611724576117236115fe565b5b600061173285828601611682565b92505060206117438582860161164c565b9150509250929050565b61175681611661565b82525050565b6000602082019050611771600083018461174d565b92915050565b6000806000606084860312156117905761178f6115fe565b5b600061179e8682870161164c565b93505060206117af8682870161164c565b92505060406117c086828701611682565b9150509250925092565b6000602082840312156117e0576117df6115fe565b5b60006117ee84828501611682565b91505092915050565b600060ff82169050919050565b61180d816117f7565b82525050565b60006020820190506118286000830184611804565b92915050565b600060208284031215611844576118436115fe565b5b60006118528482850161164c565b91505092915050565b60008060408385031215611872576118716115fe565b5b600061188085828601611682565b925050602061189185828601611682565b9150509250929050565b6118a481611623565b82525050565b60006020820190506118bf600083018461189b565b92915050565b600080604083850312156118dc576118db6115fe565b5b60006118ea8582860161164c565b92505060206118fb8582860161164c565b9150509250929050565b7f4e487b7100000000000000000000000000000000000000000000000000000000600052602260045260246000fd5b6000600282049050600182168061194c57607f821691505b60208210810361195f5761195e611905565b5b50919050565b7f616d6f756e74206973203c3d2030000000000000000000000000000000000000600082015250565b600061199b600e83611557565b91506119a682611965565b602082019050919050565b600060208201905081810360008301526119ca8161198e565b9050919050565b7f616d6f756e74206973203e207374616b65640000000000000000000000000000600082015250565b6000611a07601283611557565b9150611a12826119d1565b602082019050919050565b60006020820190508181036000830152611a36816119fa565b9050919050565b7f4e487b7100000000000000000000000000000000000000000000000000000000600052601160045260246000fd5b6000611a7782611661565b9150611a8283611661565b9250828203905081811115611a9a57611a99611a3d565b5b92915050565b6000611aab82611661565b9150611ab683611661565b9250828201905080821115611ace57611acd611a3d565b5b92915050565b6000611adf82611661565b9150611aea83611661565b9250828202611af881611661565b91508282048414831517611b0f57611b0e611a3d565b5b5092915050565b7f7374616b6564206973203c3d2030000000000000000000000000000000000000600082015250565b6000611b4c600e83611557565b9150611b5782611b16565b602082019050919050565b60006020820190508181036000830152611b7b81611b3f565b9050919050565b7f4e487b7100000000000000000000000000000000000000000000000000000000600052601260045260246000fd5b6000611bbc82611661565b9150611bc783611661565b925082611bd757611bd6611b82565b5b828204905092915050565b7f62616c616e6365206973203c3d20626f756e7479416d6f756e74000000000000600082015250565b6000611c18601a83611557565b9150611c2382611be2565b602082019050919050565b60006020820190508181036000830152611c4781611c0b565b9050919050565b7f45524332303a2064656372656173656420616c6c6f77616e63652062656c6f7760008201527f207a65726f000000000000000000000000000000000000000000000000000000602082015250565b6000611caa602583611557565b9150611cb582611c4e565b604082019050919050565b60006020820190508181036000830152611cd981611c9d565b9050919050565b7f62616c616e6365206973203c3d20616d6f756e74000000000000000000000000600082015250565b6000611d16601483611557565b9150611d2182611ce0565b602082019050919050565b60006020820190508181036000830152611d4581611d09565b9050919050565b7f45524332303a20617070726f76652066726f6d20746865207a65726f2061646460008201527f7265737300000000000000000000000000000000000000000000000000000000602082015250565b6000611da8602483611557565b9150611db382611d4c565b604082019050919050565b60006020820190508181036000830152611dd781611d9b565b9050919050565b7f45524332303a20617070726f766520746f20746865207a65726f20616464726560008201527f7373000000000000000000000000000000000000000000000000000000000000602082015250565b6000611e3a602283611557565b9150611e4582611dde565b604082019050919050565b60006020820190508181036000830152611e6981611e2d565b9050919050565b7f45524332303a207472616e736665722066726f6d20746865207a65726f20616460008201527f6472657373000000000000000000000000000000000000000000000000000000602082015250565b6000611ecc602583611557565b9150611ed782611e70565b604082019050919050565b60006020820190508181036000830152611efb81611ebf565b9050919050565b7f45524332303a207472616e7366657220746f20746865207a65726f206164647260008201527f6573730000000000000000000000000000000000000000000000000000000000602082015250565b6000611f5e602383611557565b9150611f6982611f02565b604082019050919050565b60006020820190508181036000830152611f8d81611f51565b9050919050565b7f45524332303a207472616e7366657220616d6f756e742065786365656473206260008201527f616c616e63650000000000000000000000000000000000000000000000000000602082015250565b6000611ff0602683611557565b9150611ffb82611f94565b604082019050919050565b6000602082019050818103600083015261201f81611fe3565b9050919050565b7f45524332303a20696e73756666696369656e7420616c6c6f77616e6365000000600082015250565b600061205c601d83611557565b915061206782612026565b602082019050919050565b6000602082019050818103600083015261208b8161204f565b9050919050565b7f45524332303a206d696e7420746f20746865207a65726f206164647265737300600082015250565b60006120c8601f83611557565b91506120d382612092565b602082019050919050565b600060208201905081810360008301526120f7816120bb565b9050919050565b7f45524332303a206275726e2066726f6d20746865207a65726f2061646472657360008201527f7300000000000000000000000000000000000000000000000000000000000000602082015250565b600061215a602183611557565b9150612165826120fe565b604082019050919050565b600060208201905081810360008301526121898161214d565b9050919050565b7f45524332303a206275726e20616d6f756e7420657863656564732062616c616e60008201527f6365000000000000000000000000000000000000000000000000000000000000602082015250565b60006121ec602283611557565b91506121f782612190565b604082019050919050565b6000602082019050818103600083015261221b816121df565b905091905056fea2646970667358221220f00368230f0ee7a512e6ebd6b8b900fdfd3a380c076017c9f9c0cca41bf8b5d164736f6c63430008110033",
  "linkReferences": {},
  "deployedLinkReferences": {}
}